{
  "_format": "hh-sol-artifact-1",
  "contractName": "Inst2NFT",
  "sourceName": "contracts/Inst2NFT.sol",
  "abi": [
    {
      "inputs": [],
      "stateMutability": "nonpayable",
      "type": "constructor"
    },
    {
      "anonymous": false,
      "inputs": [
        {
          "indexed": false,
          "internalType": "address",
          "name": "previousAdmin",
          "type": "address"
        },
        {
          "indexed": false,
          "internalType": "address",
          "name": "newAdmin",
          "type": "address"
        }
      ],
      "name": "AdminChanged",
      "type": "event"
    },
    {
      "anonymous": false,
      "inputs": [
        {
          "indexed": true,
          "internalType": "address",
          "name": "owner",
          "type": "address"
        },
        {
          "indexed": true,
          "internalType": "address",
          "name": "approved",
          "type": "address"
        },
        {
          "indexed": true,
          "internalType": "uint256",
          "name": "tokenId",
          "type": "uint256"
        }
      ],
      "name": "Approval",
      "type": "event"
    },
    {
      "anonymous": false,
      "inputs": [
        {
          "indexed": true,
          "internalType": "address",
          "name": "owner",
          "type": "address"
        },
        {
          "indexed": true,
          "internalType": "address",
          "name": "operator",
          "type": "address"
        },
        {
          "indexed": false,
          "internalType": "bool",
          "name": "approved",
          "type": "bool"
        }
      ],
      "name": "ApprovalForAll",
      "type": "event"
    },
    {
      "anonymous": false,
      "inputs": [
        {
          "indexed": true,
          "internalType": "address",
          "name": "beacon",
          "type": "address"
        }
      ],
      "name": "BeaconUpgraded",
      "type": "event"
    },
    {
      "anonymous": false,
      "inputs": [
        {
          "indexed": false,
          "internalType": "address",
          "name": "account",
          "type": "address"
        }
      ],
      "name": "Paused",
      "type": "event"
    },
    {
      "anonymous": false,
      "inputs": [
        {
          "indexed": true,
          "internalType": "bytes32",
          "name": "role",
          "type": "bytes32"
        },
        {
          "indexed": true,
          "internalType": "bytes32",
          "name": "previousAdminRole",
          "type": "bytes32"
        },
        {
          "indexed": true,
          "internalType": "bytes32",
          "name": "newAdminRole",
          "type": "bytes32"
        }
      ],
      "name": "RoleAdminChanged",
      "type": "event"
    },
    {
      "anonymous": false,
      "inputs": [
        {
          "indexed": true,
          "internalType": "bytes32",
          "name": "role",
          "type": "bytes32"
        },
        {
          "indexed": true,
          "internalType": "address",
          "name": "account",
          "type": "address"
        },
        {
          "indexed": true,
          "internalType": "address",
          "name": "sender",
          "type": "address"
        }
      ],
      "name": "RoleGranted",
      "type": "event"
    },
    {
      "anonymous": false,
      "inputs": [
        {
          "indexed": true,
          "internalType": "bytes32",
          "name": "role",
          "type": "bytes32"
        },
        {
          "indexed": true,
          "internalType": "address",
          "name": "account",
          "type": "address"
        },
        {
          "indexed": true,
          "internalType": "address",
          "name": "sender",
          "type": "address"
        }
      ],
      "name": "RoleRevoked",
      "type": "event"
    },
    {
      "anonymous": false,
      "inputs": [
        {
          "indexed": true,
          "internalType": "address",
          "name": "from",
          "type": "address"
        },
        {
          "indexed": true,
          "internalType": "address",
          "name": "to",
          "type": "address"
        },
        {
          "indexed": true,
          "internalType": "uint256",
          "name": "tokenId",
          "type": "uint256"
        }
      ],
      "name": "Transfer",
      "type": "event"
    },
    {
      "anonymous": false,
      "inputs": [
        {
          "indexed": false,
          "internalType": "address",
          "name": "account",
          "type": "address"
        }
      ],
      "name": "Unpaused",
      "type": "event"
    },
    {
      "anonymous": false,
      "inputs": [
        {
          "indexed": true,
          "internalType": "address",
          "name": "implementation",
          "type": "address"
        }
      ],
      "name": "Upgraded",
      "type": "event"
    },
    {
      "inputs": [],
      "name": "DEFAULT_ADMIN_ROLE",
      "outputs": [
        {
          "internalType": "bytes32",
          "name": "",
          "type": "bytes32"
        }
      ],
      "stateMutability": "view",
      "type": "function"
    },
    {
      "inputs": [],
      "name": "MINTER_ROLE",
      "outputs": [
        {
          "internalType": "bytes32",
          "name": "",
          "type": "bytes32"
        }
      ],
      "stateMutability": "view",
      "type": "function"
    },
    {
      "inputs": [],
      "name": "PAUSER_ROLE",
      "outputs": [
        {
          "internalType": "bytes32",
          "name": "",
          "type": "bytes32"
        }
      ],
      "stateMutability": "view",
      "type": "function"
    },
    {
      "inputs": [],
      "name": "UPGRADER_ROLE",
      "outputs": [
        {
          "internalType": "bytes32",
          "name": "",
          "type": "bytes32"
        }
      ],
      "stateMutability": "view",
      "type": "function"
    },
    {
      "inputs": [
        {
          "internalType": "address",
          "name": "to",
          "type": "address"
        },
        {
          "internalType": "uint256",
          "name": "tokenId",
          "type": "uint256"
        }
      ],
      "name": "approve",
      "outputs": [],
      "stateMutability": "nonpayable",
      "type": "function"
    },
    {
      "inputs": [
        {
          "internalType": "address",
          "name": "owner",
          "type": "address"
        }
      ],
      "name": "balanceOf",
      "outputs": [
        {
          "internalType": "uint256",
          "name": "",
          "type": "uint256"
        }
      ],
      "stateMutability": "view",
      "type": "function"
    },
    {
      "inputs": [
        {
          "internalType": "uint256",
          "name": "tokenId",
          "type": "uint256"
        }
      ],
      "name": "burn",
      "outputs": [],
      "stateMutability": "nonpayable",
      "type": "function"
    },
    {
      "inputs": [
        {
          "internalType": "address",
          "name": "to",
          "type": "address"
        },
        {
          "internalType": "string",
          "name": "uri",
          "type": "string"
        }
      ],
      "name": "freeMint",
      "outputs": [],
      "stateMutability": "nonpayable",
      "type": "function"
    },
    {
      "inputs": [
        {
          "internalType": "uint256",
          "name": "tokenId",
          "type": "uint256"
        }
      ],
      "name": "getApproved",
      "outputs": [
        {
          "internalType": "address",
          "name": "",
          "type": "address"
        }
      ],
      "stateMutability": "view",
      "type": "function"
    },
    {
      "inputs": [
        {
          "internalType": "bytes32",
          "name": "role",
          "type": "bytes32"
        }
      ],
      "name": "getRoleAdmin",
      "outputs": [
        {
          "internalType": "bytes32",
          "name": "",
          "type": "bytes32"
        }
      ],
      "stateMutability": "view",
      "type": "function"
    },
    {
      "inputs": [
        {
          "internalType": "bytes32",
          "name": "role",
          "type": "bytes32"
        },
        {
          "internalType": "address",
          "name": "account",
          "type": "address"
        }
      ],
      "name": "grantRole",
      "outputs": [],
      "stateMutability": "nonpayable",
      "type": "function"
    },
    {
      "inputs": [
        {
          "internalType": "bytes32",
          "name": "role",
          "type": "bytes32"
        },
        {
          "internalType": "address",
          "name": "account",
          "type": "address"
        }
      ],
      "name": "hasRole",
      "outputs": [
        {
          "internalType": "bool",
          "name": "",
          "type": "bool"
        }
      ],
      "stateMutability": "view",
      "type": "function"
    },
    {
      "inputs": [],
      "name": "initialize",
      "outputs": [],
      "stateMutability": "nonpayable",
      "type": "function"
    },
    {
      "inputs": [
        {
          "internalType": "address",
          "name": "owner",
          "type": "address"
        },
        {
          "internalType": "address",
          "name": "operator",
          "type": "address"
        }
      ],
      "name": "isApprovedForAll",
      "outputs": [
        {
          "internalType": "bool",
          "name": "",
          "type": "bool"
        }
      ],
      "stateMutability": "view",
      "type": "function"
    },
    {
      "inputs": [],
      "name": "name",
      "outputs": [
        {
          "internalType": "string",
          "name": "",
          "type": "string"
        }
      ],
      "stateMutability": "view",
      "type": "function"
    },
    {
      "inputs": [
        {
          "internalType": "uint256",
          "name": "tokenId",
          "type": "uint256"
        }
      ],
      "name": "ownerOf",
      "outputs": [
        {
          "internalType": "address",
          "name": "",
          "type": "address"
        }
      ],
      "stateMutability": "view",
      "type": "function"
    },
    {
      "inputs": [],
      "name": "pause",
      "outputs": [],
      "stateMutability": "nonpayable",
      "type": "function"
    },
    {
      "inputs": [],
      "name": "paused",
      "outputs": [
        {
          "internalType": "bool",
          "name": "",
          "type": "bool"
        }
      ],
      "stateMutability": "view",
      "type": "function"
    },
    {
      "inputs": [],
      "name": "proxiableUUID",
      "outputs": [
        {
          "internalType": "bytes32",
          "name": "",
          "type": "bytes32"
        }
      ],
      "stateMutability": "view",
      "type": "function"
    },
    {
      "inputs": [
        {
          "internalType": "bytes32",
          "name": "role",
          "type": "bytes32"
        },
        {
          "internalType": "address",
          "name": "account",
          "type": "address"
        }
      ],
      "name": "renounceRole",
      "outputs": [],
      "stateMutability": "nonpayable",
      "type": "function"
    },
    {
      "inputs": [
        {
          "internalType": "bytes32",
          "name": "role",
          "type": "bytes32"
        },
        {
          "internalType": "address",
          "name": "account",
          "type": "address"
        }
      ],
      "name": "revokeRole",
      "outputs": [],
      "stateMutability": "nonpayable",
      "type": "function"
    },
    {
      "inputs": [
        {
          "internalType": "address",
          "name": "to",
          "type": "address"
        },
        {
          "internalType": "string",
          "name": "uri",
          "type": "string"
        }
      ],
      "name": "safeMint",
      "outputs": [],
      "stateMutability": "nonpayable",
      "type": "function"
    },
    {
      "inputs": [
        {
          "internalType": "address",
          "name": "from",
          "type": "address"
        },
        {
          "internalType": "address",
          "name": "to",
          "type": "address"
        },
        {
          "internalType": "uint256",
          "name": "tokenId",
          "type": "uint256"
        }
      ],
      "name": "safeTransferFrom",
      "outputs": [],
      "stateMutability": "nonpayable",
      "type": "function"
    },
    {
      "inputs": [
        {
          "internalType": "address",
          "name": "from",
          "type": "address"
        },
        {
          "internalType": "address",
          "name": "to",
          "type": "address"
        },
        {
          "internalType": "uint256",
          "name": "tokenId",
          "type": "uint256"
        },
        {
          "internalType": "bytes",
          "name": "_data",
          "type": "bytes"
        }
      ],
      "name": "safeTransferFrom",
      "outputs": [],
      "stateMutability": "nonpayable",
      "type": "function"
    },
    {
      "inputs": [
        {
          "internalType": "address",
          "name": "operator",
          "type": "address"
        },
        {
          "internalType": "bool",
          "name": "approved",
          "type": "bool"
        }
      ],
      "name": "setApprovalForAll",
      "outputs": [],
      "stateMutability": "nonpayable",
      "type": "function"
    },
    {
      "inputs": [
        {
          "internalType": "bytes4",
          "name": "interfaceId",
          "type": "bytes4"
        }
      ],
      "name": "supportsInterface",
      "outputs": [
        {
          "internalType": "bool",
          "name": "",
          "type": "bool"
        }
      ],
      "stateMutability": "view",
      "type": "function"
    },
    {
      "inputs": [],
      "name": "symbol",
      "outputs": [
        {
          "internalType": "string",
          "name": "",
          "type": "string"
        }
      ],
      "stateMutability": "view",
      "type": "function"
    },
    {
      "inputs": [
        {
          "internalType": "uint256",
          "name": "index",
          "type": "uint256"
        }
      ],
      "name": "tokenByIndex",
      "outputs": [
        {
          "internalType": "uint256",
          "name": "",
          "type": "uint256"
        }
      ],
      "stateMutability": "view",
      "type": "function"
    },
    {
      "inputs": [
        {
          "internalType": "address",
          "name": "owner",
          "type": "address"
        },
        {
          "internalType": "uint256",
          "name": "index",
          "type": "uint256"
        }
      ],
      "name": "tokenOfOwnerByIndex",
      "outputs": [
        {
          "internalType": "uint256",
          "name": "",
          "type": "uint256"
        }
      ],
      "stateMutability": "view",
      "type": "function"
    },
    {
      "inputs": [
        {
          "internalType": "uint256",
          "name": "tokenId",
          "type": "uint256"
        }
      ],
      "name": "tokenURI",
      "outputs": [
        {
          "internalType": "string",
          "name": "",
          "type": "string"
        }
      ],
      "stateMutability": "view",
      "type": "function"
    },
    {
      "inputs": [],
      "name": "totalSupply",
      "outputs": [
        {
          "internalType": "uint256",
          "name": "",
          "type": "uint256"
        }
      ],
      "stateMutability": "view",
      "type": "function"
    },
    {
      "inputs": [
        {
          "internalType": "address",
          "name": "from",
          "type": "address"
        },
        {
          "internalType": "address",
          "name": "to",
          "type": "address"
        },
        {
          "internalType": "uint256",
          "name": "tokenId",
          "type": "uint256"
        }
      ],
      "name": "transferFrom",
      "outputs": [],
      "stateMutability": "nonpayable",
      "type": "function"
    },
    {
      "inputs": [],
      "name": "unpause",
      "outputs": [],
      "stateMutability": "nonpayable",
      "type": "function"
    },
    {
      "inputs": [
        {
          "internalType": "address",
          "name": "newImplementation",
          "type": "address"
        }
      ],
      "name": "upgradeTo",
      "outputs": [],
      "stateMutability": "nonpayable",
      "type": "function"
    },
    {
      "inputs": [
        {
          "internalType": "address",
          "name": "newImplementation",
          "type": "address"
        },
        {
          "internalType": "bytes",
          "name": "data",
          "type": "bytes"
        }
      ],
      "name": "upgradeToAndCall",
      "outputs": [],
      "stateMutability": "payable",
      "type": "function"
    }
  ],
  "bytecode": "0x60a06040523060601b6080523480156200001857600080fd5b50600054610100900460ff16620000365760005460ff161562000040565b62000040620000ee565b620000a85760405162461bcd60e51b815260206004820152602e60248201527f496e697469616c697a61626c653a20636f6e747261637420697320616c72656160448201526d191e481a5b9a5d1a585b1a5e995960921b606482015260840160405180910390fd5b600054610100900460ff16158015620000d4576000805460ff1961ff0019909116610100171660011790555b8015620000e7576000805461ff00191690555b506200011b565b600062000106306200010c60201b6200154e1760201c565b15905090565b6001600160a01b03163b151590565b60805160601c6138ca6200015660003960008181610b6f01528181610bf401528181610dbd01528181610e420152610fda01526138ca6000f3fe6080604052600436106102345760003560e01c80635c975abb11610138578063a22cb465116100b0578063d53913931161007f578063e63ab1e911610064578063e63ab1e91461065e578063e985e9c514610692578063f72c0d8b146106db57610234565b8063d53913931461060a578063d547741f1461063e57610234565b8063a22cb4651461058a578063b88d4fde146105aa578063c87b56dd146105ca578063d204c45e146105ea57610234565b80638129fc1c1161010757806391d14854116100ec57806391d148541461051957806395d89b4114610560578063a217fddf1461057557610234565b80638129fc1c146104ef5780638456cb591461050457610234565b80635c975abb146104775780636352211e1461048f57806370a08231146104af578063711112be146104cf57610234565b80632f745c59116101cb57806342842e0e1161019a5780634f1ef2861161017f5780634f1ef2861461042f5780634f6ccce71461044257806352d1902d1461046257610234565b806342842e0e146103ef57806342966c681461040f57610234565b80632f745c591461037a57806336568abe1461039a5780633659cfe6146103ba5780633f4ba83a146103da57610234565b806318160ddd1161020757806318160ddd146102ea57806323b872dd14610309578063248a9ca3146103295780632f2ff15d1461035a57610234565b806301ffc9a71461023957806306fdde031461026e578063081812fc14610290578063095ea7b3146102c8575b600080fd5b34801561024557600080fd5b50610259610254366004613587565b61070f565b60405190151581526020015b60405180910390f35b34801561027a57600080fd5b50610283610722565b60405161026591906136f3565b34801561029c57600080fd5b506102b06102ab366004613535565b6107b4565b6040516001600160a01b039091168152602001610265565b3480156102d457600080fd5b506102e86102e336600461350c565b61084e565b005b3480156102f657600080fd5b506099545b604051908152602001610265565b34801561031557600080fd5b506102e8610324366004613390565b610980565b34801561033557600080fd5b506102fb610344366004613535565b600090815261012d602052604090206001015490565b34801561036657600080fd5b506102e8610375366004613565565b610a08565b34801561038657600080fd5b506102fb61039536600461350c565b610a30565b3480156103a657600080fd5b506102e86103b5366004613565565b610ad8565b3480156103c657600080fd5b506102e86103d5366004613344565b610b64565b3480156103e657600080fd5b506102e8610ce0565b3480156103fb57600080fd5b506102e861040a366004613390565b610d13565b34801561041b57600080fd5b506102e861042a366004613535565b610d2e565b6102e861043d36600461346b565b610db2565b34801561044e57600080fd5b506102fb61045d366004613535565b610f1b565b34801561046e57600080fd5b506102fb610fcd565b34801561048357600080fd5b5060fb5460ff16610259565b34801561049b57600080fd5b506102b06104aa366004613535565b611092565b3480156104bb57600080fd5b506102fb6104ca366004613344565b61111d565b3480156104db57600080fd5b506102e86104ea3660046134b7565b6111b7565b3480156104fb57600080fd5b506102e86111e8565b34801561051057600080fd5b506102e86113e5565b34801561052557600080fd5b50610259610534366004613565565b600091825261012d602090815260408084206001600160a01b0393909316845291905290205460ff1690565b34801561056c57600080fd5b50610283611418565b34801561058157600080fd5b506102fb600081565b34801561059657600080fd5b506102e86105a5366004613431565b611427565b3480156105b657600080fd5b506102e86105c53660046133cb565b611432565b3480156105d657600080fd5b506102836105e5366004613535565b6114c0565b3480156105f657600080fd5b506102e86106053660046134b7565b6114cb565b34801561061657600080fd5b506102fb7f9f2df0fed2c77648de5860a4cc508cd0818c85b8b8a1ab4ceeef8d981c8956a681565b34801561064a57600080fd5b506102e8610659366004613565565b611527565b34801561066a57600080fd5b506102fb7f65d7a28e3265b37a6474929f336521b332c1681b933f6cb9f3376673440d862a81565b34801561069e57600080fd5b506102596106ad36600461335e565b6001600160a01b039182166000908152606a6020908152604080832093909416825291909152205460ff1690565b3480156106e757600080fd5b506102fb7f189ab7a9244df0848122154315af71fe140f3db0fe014031783b0946b8c9d2e381565b600061071a8261155d565b90505b919050565b606060658054610731906137ab565b80601f016020809104026020016040519081016040528092919081815260200182805461075d906137ab565b80156107aa5780601f1061077f576101008083540402835291602001916107aa565b820191906000526020600020905b81548152906001019060200180831161078d57829003601f168201915b5050505050905090565b6000818152606760205260408120546001600160a01b03166108325760405162461bcd60e51b815260206004820152602c60248201527f4552433732313a20617070726f76656420717565727920666f72206e6f6e657860448201526b34b9ba32b73a103a37b5b2b760a11b60648201526084015b60405180910390fd5b506000908152606960205260409020546001600160a01b031690565b600061085982611092565b9050806001600160a01b0316836001600160a01b031614156108e35760405162461bcd60e51b815260206004820152602160248201527f4552433732313a20617070726f76616c20746f2063757272656e74206f776e6560448201527f72000000000000000000000000000000000000000000000000000000000000006064820152608401610829565b336001600160a01b03821614806108ff57506108ff81336106ad565b6109715760405162461bcd60e51b815260206004820152603860248201527f4552433732313a20617070726f76652063616c6c6572206973206e6f74206f7760448201527f6e6572206e6f7220617070726f76656420666f7220616c6c00000000000000006064820152608401610829565b61097b838361159b565b505050565b61098b335b82611609565b6109fd5760405162461bcd60e51b815260206004820152603160248201527f4552433732313a207472616e736665722063616c6c6572206973206e6f74206f60448201527f776e6572206e6f7220617070726f7665640000000000000000000000000000006064820152608401610829565b61097b838383611700565b600082815261012d6020526040902060010154610a2681335b6118d8565b61097b8383611959565b6000610a3b8361111d565b8210610aaf5760405162461bcd60e51b815260206004820152602b60248201527f455243373231456e756d657261626c653a206f776e657220696e646578206f7560448201527f74206f6620626f756e64730000000000000000000000000000000000000000006064820152608401610829565b506001600160a01b03919091166000908152609760209081526040808320938352929052205490565b6001600160a01b0381163314610b565760405162461bcd60e51b815260206004820152602f60248201527f416363657373436f6e74726f6c3a2063616e206f6e6c792072656e6f756e636560448201527f20726f6c657320666f722073656c6600000000000000000000000000000000006064820152608401610829565b610b6082826119fd565b5050565b306001600160a01b037f0000000000000000000000000000000000000000000000000000000000000000161415610bf25760405162461bcd60e51b815260206004820152602c60248201527f46756e6374696f6e206d7573742062652063616c6c6564207468726f7567682060448201526b19195b1959d85d1958d85b1b60a21b6064820152608401610829565b7f00000000000000000000000000000000000000000000000000000000000000006001600160a01b0316610c4d7f360894a13ba1a3210667c828492db98dca3e2076cc3735a920a3ca505d382bbc546001600160a01b031690565b6001600160a01b031614610cb85760405162461bcd60e51b815260206004820152602c60248201527f46756e6374696f6e206d7573742062652063616c6c6564207468726f7567682060448201526b6163746976652070726f787960a01b6064820152608401610829565b610cc181611a82565b60408051600080825260208201909252610cdd91839190611aad565b50565b7f65d7a28e3265b37a6474929f336521b332c1681b933f6cb9f3376673440d862a610d0b8133610a21565b610cdd611c61565b61097b83838360405180602001604052806000815250611432565b610d3733610985565b610da95760405162461bcd60e51b815260206004820152603060248201527f4552433732314275726e61626c653a2063616c6c6572206973206e6f74206f7760448201527f6e6572206e6f7220617070726f766564000000000000000000000000000000006064820152608401610829565b610cdd81611cfd565b306001600160a01b037f0000000000000000000000000000000000000000000000000000000000000000161415610e405760405162461bcd60e51b815260206004820152602c60248201527f46756e6374696f6e206d7573742062652063616c6c6564207468726f7567682060448201526b19195b1959d85d1958d85b1b60a21b6064820152608401610829565b7f00000000000000000000000000000000000000000000000000000000000000006001600160a01b0316610e9b7f360894a13ba1a3210667c828492db98dca3e2076cc3735a920a3ca505d382bbc546001600160a01b031690565b6001600160a01b031614610f065760405162461bcd60e51b815260206004820152602c60248201527f46756e6374696f6e206d7573742062652063616c6c6564207468726f7567682060448201526b6163746976652070726f787960a01b6064820152608401610829565b610f0f82611a82565b610b6082826001611aad565b6000610f2660995490565b8210610f9a5760405162461bcd60e51b815260206004820152602c60248201527f455243373231456e756d657261626c653a20676c6f62616c20696e646578206f60448201527f7574206f6620626f756e647300000000000000000000000000000000000000006064820152608401610829565b60998281548110610fbb57634e487b7160e01b600052603260045260246000fd5b90600052602060002001549050919050565b6000306001600160a01b037f0000000000000000000000000000000000000000000000000000000000000000161461106d5760405162461bcd60e51b815260206004820152603860248201527f555550535570677261646561626c653a206d757374206e6f742062652063616c60448201527f6c6564207468726f7567682064656c656761746563616c6c00000000000000006064820152608401610829565b507f360894a13ba1a3210667c828492db98dca3e2076cc3735a920a3ca505d382bbc90565b6000818152606760205260408120546001600160a01b03168061071a5760405162461bcd60e51b815260206004820152602960248201527f4552433732313a206f776e657220717565727920666f72206e6f6e657869737460448201527f656e7420746f6b656e00000000000000000000000000000000000000000000006064820152608401610829565b60006001600160a01b03821661119b5760405162461bcd60e51b815260206004820152602a60248201527f4552433732313a2062616c616e636520717565727920666f7220746865207a6560448201527f726f2061646472657373000000000000000000000000000000000000000000006064820152608401610829565b506001600160a01b031660009081526068602052604090205490565b60006111c36101f55490565b90506111d46101f580546001019055565b6111de8382611d06565b61097b8183611d20565b600054610100900460ff166112035760005460ff1615611207565b303b155b6112795760405162461bcd60e51b815260206004820152602e60248201527f496e697469616c697a61626c653a20636f6e747261637420697320616c72656160448201527f647920696e697469616c697a65640000000000000000000000000000000000006064820152608401610829565b600054610100900460ff161580156112a4576000805460ff1961ff0019909116610100171660011790555b6113186040518060400160405280600881526020017f496e7374324e46540000000000000000000000000000000000000000000000008152506040518060400160405280600481526020017f494e535400000000000000000000000000000000000000000000000000000000815250611dc9565b611320611e3e565b611328611e3e565b611330611eab565b611338611e3e565b611340611e3e565b611348611e3e565b611353600033611959565b61137d7f65d7a28e3265b37a6474929f336521b332c1681b933f6cb9f3376673440d862a33611959565b6113a77f9f2df0fed2c77648de5860a4cc508cd0818c85b8b8a1ab4ceeef8d981c8956a633611959565b6113d17f189ab7a9244df0848122154315af71fe140f3db0fe014031783b0946b8c9d2e333611959565b8015610cdd576000805461ff001916905550565b7f65d7a28e3265b37a6474929f336521b332c1681b933f6cb9f3376673440d862a6114108133610a21565b610cdd611f1e565b606060668054610731906137ab565b610b60338383611fa6565b61143c3383611609565b6114ae5760405162461bcd60e51b815260206004820152603160248201527f4552433732313a207472616e736665722063616c6c6572206973206e6f74206f60448201527f776e6572206e6f7220617070726f7665640000000000000000000000000000006064820152608401610829565b6114ba84848484612075565b50505050565b606061071a826120f3565b7f9f2df0fed2c77648de5860a4cc508cd0818c85b8b8a1ab4ceeef8d981c8956a66114f68133610a21565b60006115026101f55490565b90506115136101f580546001019055565b61151d8482611d06565b6114ba8184611d20565b600082815261012d60205260409020600101546115448133610a21565b61097b83836119fd565b6001600160a01b03163b151590565b60006001600160e01b031982167f7965db0b00000000000000000000000000000000000000000000000000000000148061071a575061071a8261227f565b600081815260696020526040902080546001600160a01b0319166001600160a01b03841690811790915581906115d082611092565b6001600160a01b03167f8c5be1e5ebec7d5bd14f71427d1e84f3dd0314c0f7b2291e5b200ac8c7c3b92560405160405180910390a45050565b6000818152606760205260408120546001600160a01b03166116825760405162461bcd60e51b815260206004820152602c60248201527f4552433732313a206f70657261746f7220717565727920666f72206e6f6e657860448201526b34b9ba32b73a103a37b5b2b760a11b6064820152608401610829565b600061168d83611092565b9050806001600160a01b0316846001600160a01b031614806116c85750836001600160a01b03166116bd846107b4565b6001600160a01b0316145b806116f857506001600160a01b038082166000908152606a602090815260408083209388168352929052205460ff165b949350505050565b826001600160a01b031661171382611092565b6001600160a01b03161461178f5760405162461bcd60e51b815260206004820152602560248201527f4552433732313a207472616e736665722066726f6d20696e636f72726563742060448201527f6f776e65720000000000000000000000000000000000000000000000000000006064820152608401610829565b6001600160a01b03821661180a5760405162461bcd60e51b8152602060048201526024808201527f4552433732313a207472616e7366657220746f20746865207a65726f2061646460448201527f72657373000000000000000000000000000000000000000000000000000000006064820152608401610829565b6118158383836122bd565b61182060008261159b565b6001600160a01b0383166000908152606860205260408120805460019290611849908490613751565b90915550506001600160a01b0382166000908152606860205260408120805460019290611877908490613706565b909155505060008181526067602052604080822080546001600160a01b0319166001600160a01b0386811691821790925591518493918716917fddf252ad1be2c89b69c2b068fc378daa952ba7f163c4a11628f55a4df523b3ef91a461097b565b600082815261012d602090815260408083206001600160a01b038516845290915290205460ff16610b6057611917816001600160a01b0316601461231b565b61192283602061231b565b604051602001611933929190613636565b60408051601f198184030181529082905262461bcd60e51b8252610829916004016136f3565b600082815261012d602090815260408083206001600160a01b038516845290915290205460ff16610b6057600082815261012d602090815260408083206001600160a01b03851684529091529020805460ff191660011790556119b93390565b6001600160a01b0316816001600160a01b0316837f2f8788117e7eff1d82e926ec794901d17c78024a50270940304540a733656f0d60405160405180910390a45050565b600082815261012d602090815260408083206001600160a01b038516845290915290205460ff1615610b6057600082815261012d602090815260408083206001600160a01b0385168085529252808320805460ff1916905551339285917ff6391f5c32d9c69d2a47ea670b442974b53935d1edc7fd64eb21e047a839171b9190a45050565b7f189ab7a9244df0848122154315af71fe140f3db0fe014031783b0946b8c9d2e3610b608133610a21565b7f4910fdfa16fed3260ed0e7147f7cc6da11a60208b5b9406d12a635614ffd91435460ff1615611ae557611ae08361252d565b61097b565b826001600160a01b03166352d1902d6040518163ffffffff1660e01b815260040160206040518083038186803b158015611b1e57600080fd5b505afa925050508015611b4e575060408051601f3d908101601f19168201909252611b4b9181019061354d565b60015b611bc05760405162461bcd60e51b815260206004820152602e60248201527f45524331393637557067726164653a206e657720696d706c656d656e7461746960448201527f6f6e206973206e6f7420555550530000000000000000000000000000000000006064820152608401610829565b7f360894a13ba1a3210667c828492db98dca3e2076cc3735a920a3ca505d382bbc8114611c555760405162461bcd60e51b815260206004820152602960248201527f45524331393637557067726164653a20756e737570706f727465642070726f7860448201527f6961626c655555494400000000000000000000000000000000000000000000006064820152608401610829565b5061097b8383836125eb565b60fb5460ff16611cb35760405162461bcd60e51b815260206004820152601460248201527f5061757361626c653a206e6f74207061757365640000000000000000000000006044820152606401610829565b60fb805460ff191690557f5db9ee0a495bf2e6ff9c91a7834c1ba4fdd244a5e8aa4e537bd38aeae4b073aa335b6040516001600160a01b03909116815260200160405180910390a1565b610cdd81612610565b610b60828260405180602001604052806000815250612650565b6000828152606760205260409020546001600160a01b0316611daa5760405162461bcd60e51b815260206004820152602e60248201527f45524337323155524953746f726167653a2055524920736574206f66206e6f6e60448201527f6578697374656e7420746f6b656e0000000000000000000000000000000000006064820152608401610829565b600082815260c960209081526040909120825161097b928401906131c7565b600054610100900460ff16611e345760405162461bcd60e51b815260206004820152602b60248201527f496e697469616c697a61626c653a20636f6e7472616374206973206e6f74206960448201526a6e697469616c697a696e6760a81b6064820152608401610829565b610b6082826126ce565b600054610100900460ff16611ea95760405162461bcd60e51b815260206004820152602b60248201527f496e697469616c697a61626c653a20636f6e7472616374206973206e6f74206960448201526a6e697469616c697a696e6760a81b6064820152608401610829565b565b600054610100900460ff16611f165760405162461bcd60e51b815260206004820152602b60248201527f496e697469616c697a61626c653a20636f6e7472616374206973206e6f74206960448201526a6e697469616c697a696e6760a81b6064820152608401610829565b611ea9612760565b60fb5460ff1615611f715760405162461bcd60e51b815260206004820152601060248201527f5061757361626c653a20706175736564000000000000000000000000000000006044820152606401610829565b60fb805460ff191660011790557f62e78cea01bee320cd4e420270b5ea74000d11b0c9f74754ebdbfc544b05a258611ce03390565b816001600160a01b0316836001600160a01b031614156120085760405162461bcd60e51b815260206004820152601960248201527f4552433732313a20617070726f766520746f2063616c6c6572000000000000006044820152606401610829565b6001600160a01b038381166000818152606a6020908152604080832094871680845294825291829020805460ff191686151590811790915591519182527f17307eab39ab6107e8899845ad3d59bd9653f200f220920489ca2b5937696c31910160405180910390a3505050565b612080848484611700565b61208c848484846127d7565b6114ba5760405162461bcd60e51b815260206004820152603260248201527f4552433732313a207472616e7366657220746f206e6f6e20455243373231526560448201527131b2b4bb32b91034b6b83632b6b2b73a32b960711b6064820152608401610829565b6000818152606760205260409020546060906001600160a01b03166121805760405162461bcd60e51b815260206004820152603160248201527f45524337323155524953746f726167653a2055524920717565727920666f722060448201527f6e6f6e6578697374656e7420746f6b656e0000000000000000000000000000006064820152608401610829565b600082815260c9602052604081208054612199906137ab565b80601f01602080910402602001604051908101604052809291908181526020018280546121c5906137ab565b80156122125780601f106121e757610100808354040283529160200191612212565b820191906000526020600020905b8154815290600101906020018083116121f557829003601f168201915b50505050509050600061223060408051602081019091526000815290565b90508051600014156122445750905061071d565b81511561227657808260405160200161225e929190613607565b6040516020818303038152906040529250505061071d565b6116f88461292f565b60006001600160e01b031982167f780e9d6300000000000000000000000000000000000000000000000000000000148061071a575061071a82612a24565b60fb5460ff16156123105760405162461bcd60e51b815260206004820152601060248201527f5061757361626c653a20706175736564000000000000000000000000000000006044820152606401610829565b61097b838383612abf565b6060600061232a836002613732565b612335906002613706565b67ffffffffffffffff81111561235b57634e487b7160e01b600052604160045260246000fd5b6040519080825280601f01601f191660200182016040528015612385576020820181803683370190505b509050600360fc1b816000815181106123ae57634e487b7160e01b600052603260045260246000fd5b60200101906001600160f81b031916908160001a9053507f78000000000000000000000000000000000000000000000000000000000000008160018151811061240757634e487b7160e01b600052603260045260246000fd5b60200101906001600160f81b031916908160001a905350600061242b846002613732565b612436906001613706565b90505b60018111156124d7577f303132333435363738396162636465660000000000000000000000000000000085600f166010811061248557634e487b7160e01b600052603260045260246000fd5b1a60f81b8282815181106124a957634e487b7160e01b600052603260045260246000fd5b60200101906001600160f81b031916908160001a90535060049490941c936124d081613794565b9050612439565b5083156125265760405162461bcd60e51b815260206004820181905260248201527f537472696e67733a20686578206c656e67746820696e73756666696369656e746044820152606401610829565b9392505050565b6001600160a01b0381163b6125aa5760405162461bcd60e51b815260206004820152602d60248201527f455243313936373a206e657720696d706c656d656e746174696f6e206973206e60448201527f6f74206120636f6e7472616374000000000000000000000000000000000000006064820152608401610829565b7f360894a13ba1a3210667c828492db98dca3e2076cc3735a920a3ca505d382bbc80546001600160a01b0319166001600160a01b0392909216919091179055565b6125f483612b77565b6000825111806126015750805b1561097b576114ba8383612bb7565b61261981612cc2565b600081815260c9602052604090208054612632906137ab565b159050610cdd57600081815260c960205260408120610cdd9161324b565b61265a8383612d6a565b61266760008484846127d7565b61097b5760405162461bcd60e51b815260206004820152603260248201527f4552433732313a207472616e7366657220746f206e6f6e20455243373231526560448201527131b2b4bb32b91034b6b83632b6b2b73a32b960711b6064820152608401610829565b600054610100900460ff166127395760405162461bcd60e51b815260206004820152602b60248201527f496e697469616c697a61626c653a20636f6e7472616374206973206e6f74206960448201526a6e697469616c697a696e6760a81b6064820152608401610829565b815161274c9060659060208501906131c7565b50805161097b9060669060208401906131c7565b600054610100900460ff166127cb5760405162461bcd60e51b815260206004820152602b60248201527f496e697469616c697a61626c653a20636f6e7472616374206973206e6f74206960448201526a6e697469616c697a696e6760a81b6064820152608401610829565b60fb805460ff19169055565b60006001600160a01b0384163b1561292457604051630a85bd0160e11b81526001600160a01b0385169063150b7a029061281b9033908990889088906004016136b7565b602060405180830381600087803b15801561283557600080fd5b505af1925050508015612865575060408051601f3d908101601f19168201909252612862918101906135a3565b60015b61290a573d808015612893576040519150601f19603f3d011682016040523d82523d6000602084013e612898565b606091505b5080516129025760405162461bcd60e51b815260206004820152603260248201527f4552433732313a207472616e7366657220746f206e6f6e20455243373231526560448201527131b2b4bb32b91034b6b83632b6b2b73a32b960711b6064820152608401610829565b805181602001fd5b6001600160e01b031916630a85bd0160e11b1490506116f8565b506001949350505050565b6000818152606760205260409020546060906001600160a01b03166129bc5760405162461bcd60e51b815260206004820152602f60248201527f4552433732314d657461646174613a2055524920717565727920666f72206e6f60448201527f6e6578697374656e7420746f6b656e00000000000000000000000000000000006064820152608401610829565b60006129d360408051602081019091526000815290565b905060008151116129f35760405180602001604052806000815250612526565b806129fd84612eb9565b604051602001612a0e929190613607565b6040516020818303038152906040529392505050565b60006001600160e01b031982167f80ac58cd000000000000000000000000000000000000000000000000000000001480612a8757506001600160e01b031982167f5b5e139f00000000000000000000000000000000000000000000000000000000145b8061071a57507f01ffc9a7000000000000000000000000000000000000000000000000000000006001600160e01b031983161461071a565b6001600160a01b038316612b1a57612b1581609980546000838152609a60205260408120829055600182018355919091527f72a152ddfb8e864297c917af52ea6c1c68aead0fee1a62673fcc7e0c94979d000155565b612b3d565b816001600160a01b0316836001600160a01b031614612b3d57612b3d8382612fd4565b6001600160a01b038216612b5457611ae081613071565b826001600160a01b0316826001600160a01b03161461097b5761097b828261314a565b612b808161252d565b6040516001600160a01b038216907fbc7cd75a20ee27fd9adebab32041f755214dbc6bffa90cc0225b39da2e5c2d3b90600090a250565b60606001600160a01b0383163b612c365760405162461bcd60e51b815260206004820152602660248201527f416464726573733a2064656c65676174652063616c6c20746f206e6f6e2d636f60448201527f6e747261637400000000000000000000000000000000000000000000000000006064820152608401610829565b600080846001600160a01b031684604051612c5191906135eb565b600060405180830381855af49150503d8060008114612c8c576040519150601f19603f3d011682016040523d82523d6000602084013e612c91565b606091505b5091509150612cb9828260405180606001604052806027815260200161386e6027913961318e565b95945050505050565b6000612ccd82611092565b9050612cdb816000846122bd565b612ce660008361159b565b6001600160a01b0381166000908152606860205260408120805460019290612d0f908490613751565b909155505060008281526067602052604080822080546001600160a01b0319169055518391906001600160a01b038416907fddf252ad1be2c89b69c2b068fc378daa952ba7f163c4a11628f55a4df523b3ef908390a4610b60565b6001600160a01b038216612dc05760405162461bcd60e51b815260206004820181905260248201527f4552433732313a206d696e7420746f20746865207a65726f20616464726573736044820152606401610829565b6000818152606760205260409020546001600160a01b031615612e255760405162461bcd60e51b815260206004820152601c60248201527f4552433732313a20746f6b656e20616c7265616479206d696e746564000000006044820152606401610829565b612e31600083836122bd565b6001600160a01b0382166000908152606860205260408120805460019290612e5a908490613706565b909155505060008181526067602052604080822080546001600160a01b0319166001600160a01b03861690811790915590518392907fddf252ad1be2c89b69c2b068fc378daa952ba7f163c4a11628f55a4df523b3ef908290a4610b60565b606081612ede57506040805180820190915260018152600360fc1b602082015261071d565b8160005b8115612f085780612ef2816137e6565b9150612f019050600a8361371e565b9150612ee2565b60008167ffffffffffffffff811115612f3157634e487b7160e01b600052604160045260246000fd5b6040519080825280601f01601f191660200182016040528015612f5b576020820181803683370190505b5090505b84156116f857612f70600183613751565b9150612f7d600a86613801565b612f88906030613706565b60f81b818381518110612fab57634e487b7160e01b600052603260045260246000fd5b60200101906001600160f81b031916908160001a905350612fcd600a8661371e565b9450612f5f565b60006001612fe18461111d565b612feb9190613751565b60008381526098602052604090205490915080821461303e576001600160a01b03841660009081526097602090815260408083208584528252808320548484528184208190558352609890915290208190555b5060009182526098602090815260408084208490556001600160a01b039094168352609781528383209183525290812055565b60995460009061308390600190613751565b6000838152609a6020526040812054609980549394509092849081106130b957634e487b7160e01b600052603260045260246000fd5b9060005260206000200154905080609983815481106130e857634e487b7160e01b600052603260045260246000fd5b6000918252602080832090910192909255828152609a9091526040808220849055858252812055609980548061312e57634e487b7160e01b600052603160045260246000fd5b6001900381819060005260206000200160009055905550505050565b60006131558361111d565b6001600160a01b039093166000908152609760209081526040808320868452825280832085905593825260989052919091209190915550565b6060831561319d575081612526565b8251156131ad5782518084602001fd5b8160405162461bcd60e51b815260040161082991906136f3565b8280546131d3906137ab565b90600052602060002090601f0160209004810192826131f5576000855561323b565b82601f1061320e57805160ff191683800117855561323b565b8280016001018555821561323b579182015b8281111561323b578251825591602001919060010190613220565b50613247929150613283565b5090565b508054613257906137ab565b6000825580601f106132695750610cdd565b601f016020900490600052602060002090810190610cdd91905b5b808211156132475760008155600101613284565b600067ffffffffffffffff808411156132b3576132b3613841565b604051601f8501601f19908116603f011681019082821181831017156132db576132db613841565b816040528093508581528686860111156132f457600080fd5b858560208301376000602087830101525050509392505050565b80356001600160a01b038116811461071d57600080fd5b600082601f830112613335578081fd5b61252683833560208501613298565b600060208284031215613355578081fd5b6125268261330e565b60008060408385031215613370578081fd5b6133798361330e565b91506133876020840161330e565b90509250929050565b6000806000606084860312156133a4578081fd5b6133ad8461330e565b92506133bb6020850161330e565b9150604084013590509250925092565b600080600080608085870312156133e0578081fd5b6133e98561330e565b93506133f76020860161330e565b925060408501359150606085013567ffffffffffffffff811115613419578182fd5b61342587828801613325565b91505092959194509250565b60008060408385031215613443578182fd5b61344c8361330e565b915060208301358015158114613460578182fd5b809150509250929050565b6000806040838503121561347d578182fd5b6134868361330e565b9150602083013567ffffffffffffffff8111156134a1578182fd5b6134ad85828601613325565b9150509250929050565b600080604083850312156134c9578182fd5b6134d28361330e565b9150602083013567ffffffffffffffff8111156134ed578182fd5b8301601f810185136134fd578182fd5b6134ad85823560208401613298565b6000806040838503121561351e578182fd5b6135278361330e565b946020939093013593505050565b600060208284031215613546578081fd5b5035919050565b60006020828403121561355e578081fd5b5051919050565b60008060408385031215613577578182fd5b823591506133876020840161330e565b600060208284031215613598578081fd5b813561252681613857565b6000602082840312156135b4578081fd5b815161252681613857565b600081518084526135d7816020860160208601613768565b601f01601f19169290920160200192915050565b600082516135fd818460208701613768565b9190910192915050565b60008351613619818460208801613768565b83519083019061362d818360208801613768565b01949350505050565b60007f416363657373436f6e74726f6c3a206163636f756e74200000000000000000008252835161366e816017850160208801613768565b7f206973206d697373696e6720726f6c652000000000000000000000000000000060179184019182015283516136ab816028840160208801613768565b01602801949350505050565b60006001600160a01b038087168352808616602084015250836040830152608060608301526136e960808301846135bf565b9695505050505050565b60006020825261252660208301846135bf565b6000821982111561371957613719613815565b500190565b60008261372d5761372d61382b565b500490565b600081600019048311821515161561374c5761374c613815565b500290565b60008282101561376357613763613815565b500390565b60005b8381101561378357818101518382015260200161376b565b838111156114ba5750506000910152565b6000816137a3576137a3613815565b506000190190565b6002810460018216806137bf57607f821691505b602082108114156137e057634e487b7160e01b600052602260045260246000fd5b50919050565b60006000198214156137fa576137fa613815565b5060010190565b6000826138105761381061382b565b500690565b634e487b7160e01b600052601160045260246000fd5b634e487b7160e01b600052601260045260246000fd5b634e487b7160e01b600052604160045260246000fd5b6001600160e01b031981168114610cdd57600080fdfe416464726573733a206c6f772d6c6576656c2064656c65676174652063616c6c206661696c6564a2646970667358221220a47e51b102da0138d037bc1d82922ecfcdf9b1e692aad524fab6646da2e7ad7464736f6c63430008020033",
  "linkReferences": {},
  "deployedLinkReferences": {}
}