{
  "_format": "hh-sol-artifact-1",
  "contractName": "Inst2NFT",
  "sourceName": "contracts/Inst2NFT.sol",
  "abi": [
    {
      "inputs": [],
      "stateMutability": "nonpayable",
      "type": "constructor"
    },
    {
      "anonymous": false,
      "inputs": [
        {
          "indexed": false,
          "internalType": "address",
          "name": "previousAdmin",
          "type": "address"
        },
        {
          "indexed": false,
          "internalType": "address",
          "name": "newAdmin",
          "type": "address"
        }
      ],
      "name": "AdminChanged",
      "type": "event"
    },
    {
      "anonymous": false,
      "inputs": [
        {
          "indexed": true,
          "internalType": "address",
          "name": "owner",
          "type": "address"
        },
        {
          "indexed": true,
          "internalType": "address",
          "name": "approved",
          "type": "address"
        },
        {
          "indexed": true,
          "internalType": "uint256",
          "name": "tokenId",
          "type": "uint256"
        }
      ],
      "name": "Approval",
      "type": "event"
    },
    {
      "anonymous": false,
      "inputs": [
        {
          "indexed": true,
          "internalType": "address",
          "name": "owner",
          "type": "address"
        },
        {
          "indexed": true,
          "internalType": "address",
          "name": "operator",
          "type": "address"
        },
        {
          "indexed": false,
          "internalType": "bool",
          "name": "approved",
          "type": "bool"
        }
      ],
      "name": "ApprovalForAll",
      "type": "event"
    },
    {
      "anonymous": false,
      "inputs": [
        {
          "indexed": true,
          "internalType": "address",
          "name": "beacon",
          "type": "address"
        }
      ],
      "name": "BeaconUpgraded",
      "type": "event"
    },
    {
      "anonymous": false,
      "inputs": [
        {
          "indexed": false,
          "internalType": "address",
          "name": "account",
          "type": "address"
        }
      ],
      "name": "Paused",
      "type": "event"
    },
    {
      "anonymous": false,
      "inputs": [
        {
          "indexed": true,
          "internalType": "bytes32",
          "name": "role",
          "type": "bytes32"
        },
        {
          "indexed": true,
          "internalType": "bytes32",
          "name": "previousAdminRole",
          "type": "bytes32"
        },
        {
          "indexed": true,
          "internalType": "bytes32",
          "name": "newAdminRole",
          "type": "bytes32"
        }
      ],
      "name": "RoleAdminChanged",
      "type": "event"
    },
    {
      "anonymous": false,
      "inputs": [
        {
          "indexed": true,
          "internalType": "bytes32",
          "name": "role",
          "type": "bytes32"
        },
        {
          "indexed": true,
          "internalType": "address",
          "name": "account",
          "type": "address"
        },
        {
          "indexed": true,
          "internalType": "address",
          "name": "sender",
          "type": "address"
        }
      ],
      "name": "RoleGranted",
      "type": "event"
    },
    {
      "anonymous": false,
      "inputs": [
        {
          "indexed": true,
          "internalType": "bytes32",
          "name": "role",
          "type": "bytes32"
        },
        {
          "indexed": true,
          "internalType": "address",
          "name": "account",
          "type": "address"
        },
        {
          "indexed": true,
          "internalType": "address",
          "name": "sender",
          "type": "address"
        }
      ],
      "name": "RoleRevoked",
      "type": "event"
    },
    {
      "anonymous": false,
      "inputs": [
        {
          "indexed": true,
          "internalType": "address",
          "name": "from",
          "type": "address"
        },
        {
          "indexed": true,
          "internalType": "address",
          "name": "to",
          "type": "address"
        },
        {
          "indexed": true,
          "internalType": "uint256",
          "name": "tokenId",
          "type": "uint256"
        }
      ],
      "name": "Transfer",
      "type": "event"
    },
    {
      "anonymous": false,
      "inputs": [
        {
          "indexed": false,
          "internalType": "address",
          "name": "account",
          "type": "address"
        }
      ],
      "name": "Unpaused",
      "type": "event"
    },
    {
      "anonymous": false,
      "inputs": [
        {
          "indexed": true,
          "internalType": "address",
          "name": "implementation",
          "type": "address"
        }
      ],
      "name": "Upgraded",
      "type": "event"
    },
    {
      "inputs": [],
      "name": "DEFAULT_ADMIN_ROLE",
      "outputs": [
        {
          "internalType": "bytes32",
          "name": "",
          "type": "bytes32"
        }
      ],
      "stateMutability": "view",
      "type": "function"
    },
    {
      "inputs": [],
      "name": "MINTER_ROLE",
      "outputs": [
        {
          "internalType": "bytes32",
          "name": "",
          "type": "bytes32"
        }
      ],
      "stateMutability": "view",
      "type": "function"
    },
    {
      "inputs": [],
      "name": "PAUSER_ROLE",
      "outputs": [
        {
          "internalType": "bytes32",
          "name": "",
          "type": "bytes32"
        }
      ],
      "stateMutability": "view",
      "type": "function"
    },
    {
      "inputs": [],
      "name": "UPGRADER_ROLE",
      "outputs": [
        {
          "internalType": "bytes32",
          "name": "",
          "type": "bytes32"
        }
      ],
      "stateMutability": "view",
      "type": "function"
    },
    {
      "inputs": [
        {
          "internalType": "address",
          "name": "to",
          "type": "address"
        },
        {
          "internalType": "uint256",
          "name": "tokenId",
          "type": "uint256"
        }
      ],
      "name": "approve",
      "outputs": [],
      "stateMutability": "nonpayable",
      "type": "function"
    },
    {
      "inputs": [
        {
          "internalType": "address",
          "name": "owner",
          "type": "address"
        }
      ],
      "name": "balanceOf",
      "outputs": [
        {
          "internalType": "uint256",
          "name": "",
          "type": "uint256"
        }
      ],
      "stateMutability": "view",
      "type": "function"
    },
    {
      "inputs": [
        {
          "internalType": "uint256",
          "name": "tokenId",
          "type": "uint256"
        }
      ],
      "name": "burn",
      "outputs": [],
      "stateMutability": "nonpayable",
      "type": "function"
    },
    {
      "inputs": [
        {
          "internalType": "address",
          "name": "to",
          "type": "address"
        },
        {
          "internalType": "string",
          "name": "uri",
          "type": "string"
        }
      ],
      "name": "freeMint",
      "outputs": [],
      "stateMutability": "nonpayable",
      "type": "function"
    },
    {
      "inputs": [
        {
          "internalType": "uint256",
          "name": "tokenId",
          "type": "uint256"
        }
      ],
      "name": "getApproved",
      "outputs": [
        {
          "internalType": "address",
          "name": "",
          "type": "address"
        }
      ],
      "stateMutability": "view",
      "type": "function"
    },
    {
      "inputs": [
        {
          "internalType": "bytes32",
          "name": "role",
          "type": "bytes32"
        }
      ],
      "name": "getRoleAdmin",
      "outputs": [
        {
          "internalType": "bytes32",
          "name": "",
          "type": "bytes32"
        }
      ],
      "stateMutability": "view",
      "type": "function"
    },
    {
      "inputs": [
        {
          "internalType": "bytes32",
          "name": "role",
          "type": "bytes32"
        },
        {
          "internalType": "address",
          "name": "account",
          "type": "address"
        }
      ],
      "name": "grantRole",
      "outputs": [],
      "stateMutability": "nonpayable",
      "type": "function"
    },
    {
      "inputs": [
        {
          "internalType": "bytes32",
          "name": "role",
          "type": "bytes32"
        },
        {
          "internalType": "address",
          "name": "account",
          "type": "address"
        }
      ],
      "name": "hasRole",
      "outputs": [
        {
          "internalType": "bool",
          "name": "",
          "type": "bool"
        }
      ],
      "stateMutability": "view",
      "type": "function"
    },
    {
      "inputs": [],
      "name": "initialize",
      "outputs": [],
      "stateMutability": "nonpayable",
      "type": "function"
    },
    {
      "inputs": [
        {
          "internalType": "address",
          "name": "owner",
          "type": "address"
        },
        {
          "internalType": "address",
          "name": "operator",
          "type": "address"
        }
      ],
      "name": "isApprovedForAll",
      "outputs": [
        {
          "internalType": "bool",
          "name": "",
          "type": "bool"
        }
      ],
      "stateMutability": "view",
      "type": "function"
    },
    {
      "inputs": [],
      "name": "name",
      "outputs": [
        {
          "internalType": "string",
          "name": "",
          "type": "string"
        }
      ],
      "stateMutability": "view",
      "type": "function"
    },
    {
      "inputs": [
        {
          "internalType": "uint256",
          "name": "tokenId",
          "type": "uint256"
        }
      ],
      "name": "ownerOf",
      "outputs": [
        {
          "internalType": "address",
          "name": "",
          "type": "address"
        }
      ],
      "stateMutability": "view",
      "type": "function"
    },
    {
      "inputs": [],
      "name": "pause",
      "outputs": [],
      "stateMutability": "nonpayable",
      "type": "function"
    },
    {
      "inputs": [],
      "name": "paused",
      "outputs": [
        {
          "internalType": "bool",
          "name": "",
          "type": "bool"
        }
      ],
      "stateMutability": "view",
      "type": "function"
    },
    {
      "inputs": [],
      "name": "proxiableUUID",
      "outputs": [
        {
          "internalType": "bytes32",
          "name": "",
          "type": "bytes32"
        }
      ],
      "stateMutability": "view",
      "type": "function"
    },
    {
      "inputs": [
        {
          "internalType": "bytes32",
          "name": "role",
          "type": "bytes32"
        },
        {
          "internalType": "address",
          "name": "account",
          "type": "address"
        }
      ],
      "name": "renounceRole",
      "outputs": [],
      "stateMutability": "nonpayable",
      "type": "function"
    },
    {
      "inputs": [
        {
          "internalType": "bytes32",
          "name": "role",
          "type": "bytes32"
        },
        {
          "internalType": "address",
          "name": "account",
          "type": "address"
        }
      ],
      "name": "revokeRole",
      "outputs": [],
      "stateMutability": "nonpayable",
      "type": "function"
    },
    {
      "inputs": [
        {
          "internalType": "address",
          "name": "to",
          "type": "address"
        },
        {
          "internalType": "string",
          "name": "uri",
          "type": "string"
        }
      ],
      "name": "safeMint",
      "outputs": [],
      "stateMutability": "nonpayable",
      "type": "function"
    },
    {
      "inputs": [
        {
          "internalType": "address",
          "name": "from",
          "type": "address"
        },
        {
          "internalType": "address",
          "name": "to",
          "type": "address"
        },
        {
          "internalType": "uint256",
          "name": "tokenId",
          "type": "uint256"
        }
      ],
      "name": "safeTransferFrom",
      "outputs": [],
      "stateMutability": "nonpayable",
      "type": "function"
    },
    {
      "inputs": [
        {
          "internalType": "address",
          "name": "from",
          "type": "address"
        },
        {
          "internalType": "address",
          "name": "to",
          "type": "address"
        },
        {
          "internalType": "uint256",
          "name": "tokenId",
          "type": "uint256"
        },
        {
          "internalType": "bytes",
          "name": "_data",
          "type": "bytes"
        }
      ],
      "name": "safeTransferFrom",
      "outputs": [],
      "stateMutability": "nonpayable",
      "type": "function"
    },
    {
      "inputs": [
        {
          "internalType": "address",
          "name": "operator",
          "type": "address"
        },
        {
          "internalType": "bool",
          "name": "approved",
          "type": "bool"
        }
      ],
      "name": "setApprovalForAll",
      "outputs": [],
      "stateMutability": "nonpayable",
      "type": "function"
    },
    {
      "inputs": [
        {
          "internalType": "bytes4",
          "name": "interfaceId",
          "type": "bytes4"
        }
      ],
      "name": "supportsInterface",
      "outputs": [
        {
          "internalType": "bool",
          "name": "",
          "type": "bool"
        }
      ],
      "stateMutability": "view",
      "type": "function"
    },
    {
      "inputs": [],
      "name": "symbol",
      "outputs": [
        {
          "internalType": "string",
          "name": "",
          "type": "string"
        }
      ],
      "stateMutability": "view",
      "type": "function"
    },
    {
      "inputs": [
        {
          "internalType": "uint256",
          "name": "index",
          "type": "uint256"
        }
      ],
      "name": "tokenByIndex",
      "outputs": [
        {
          "internalType": "uint256",
          "name": "",
          "type": "uint256"
        }
      ],
      "stateMutability": "view",
      "type": "function"
    },
    {
      "inputs": [
        {
          "internalType": "address",
          "name": "owner",
          "type": "address"
        },
        {
          "internalType": "uint256",
          "name": "index",
          "type": "uint256"
        }
      ],
      "name": "tokenOfOwnerByIndex",
      "outputs": [
        {
          "internalType": "uint256",
          "name": "",
          "type": "uint256"
        }
      ],
      "stateMutability": "view",
      "type": "function"
    },
    {
      "inputs": [
        {
          "internalType": "uint256",
          "name": "tokenId",
          "type": "uint256"
        }
      ],
      "name": "tokenURI",
      "outputs": [
        {
          "internalType": "string",
          "name": "",
          "type": "string"
        }
      ],
      "stateMutability": "view",
      "type": "function"
    },
    {
      "inputs": [],
      "name": "totalSupply",
      "outputs": [
        {
          "internalType": "uint256",
          "name": "",
          "type": "uint256"
        }
      ],
      "stateMutability": "view",
      "type": "function"
    },
    {
      "inputs": [
        {
          "internalType": "address",
          "name": "from",
          "type": "address"
        },
        {
          "internalType": "address",
          "name": "to",
          "type": "address"
        },
        {
          "internalType": "uint256",
          "name": "tokenId",
          "type": "uint256"
        }
      ],
      "name": "transferFrom",
      "outputs": [],
      "stateMutability": "nonpayable",
      "type": "function"
    },
    {
      "inputs": [],
      "name": "unpause",
      "outputs": [],
      "stateMutability": "nonpayable",
      "type": "function"
    },
    {
      "inputs": [
        {
          "internalType": "address",
          "name": "newImplementation",
          "type": "address"
        }
      ],
      "name": "upgradeTo",
      "outputs": [],
      "stateMutability": "nonpayable",
      "type": "function"
    },
    {
      "inputs": [
        {
          "internalType": "address",
          "name": "newImplementation",
          "type": "address"
        },
        {
          "internalType": "bytes",
          "name": "data",
          "type": "bytes"
        }
      ],
      "name": "upgradeToAndCall",
      "outputs": [],
      "stateMutability": "payable",
      "type": "function"
    }
  ],
  "bytecode": "0x60a06040523073ffffffffffffffffffffffffffffffffffffffff1660809073ffffffffffffffffffffffffffffffffffffffff1660601b8152503480156200004757600080fd5b50600060019054906101000a900460ff16620000725760008054906101000a900460ff161562000083565b620000826200013f60201b60201c565b5b620000c5576040517f08c379a0000000000000000000000000000000000000000000000000000000008152600401620000bc90620001a7565b60405180910390fd5b60008060019054906101000a900460ff16159050801562000116576001600060016101000a81548160ff02191690831515021790555060016000806101000a81548160ff0219169083151502179055505b8015620001385760008060016101000a81548160ff0219169083151502179055505b5062000229565b600062000157306200015d60201b620018721760201c565b15905090565b6000808273ffffffffffffffffffffffffffffffffffffffff163b119050919050565b60006200018f602e83620001c9565b91506200019c82620001da565b604082019050919050565b60006020820190508181036000830152620001c28162000180565b9050919050565b600082825260208201905092915050565b7f496e697469616c697a61626c653a20636f6e747261637420697320616c72656160008201527f647920696e697469616c697a6564000000000000000000000000000000000000602082015250565b60805160601c615d7f6200026460003960008181610c5d01528181610cec01528181610ec501528181610f54015261109b0152615d7f6000f3fe6080604052600436106102045760003560e01c80635c975abb11610118578063a22cb465116100a0578063d53913931161006f578063d539139314610754578063d547741f1461077f578063e63ab1e9146107a8578063e985e9c5146107d3578063f72c0d8b1461081057610204565b8063a22cb4651461069c578063b88d4fde146106c5578063c87b56dd146106ee578063d204c45e1461072b57610204565b80638129fc1c116100e75780638129fc1c146105db5780638456cb59146105f257806391d148541461060957806395d89b4114610646578063a217fddf1461067157610204565b80635c975abb1461050d5780636352211e1461053857806370a0823114610575578063711112be146105b257610204565b80632f745c591161019b57806342842e0e1161016a57806342842e0e1461043757806342966c68146104605780634f1ef286146104895780634f6ccce7146104a557806352d1902d146104e257610204565b80632f745c591461039157806336568abe146103ce5780633659cfe6146103f75780633f4ba83a1461042057610204565b806318160ddd116101d757806318160ddd146102d757806323b872dd14610302578063248a9ca31461032b5780632f2ff15d1461036857610204565b806301ffc9a71461020957806306fdde0314610246578063081812fc14610271578063095ea7b3146102ae575b600080fd5b34801561021557600080fd5b50610230600480360381019061022b9190614363565b61083b565b60405161023d9190614a70565b60405180910390f35b34801561025257600080fd5b5061025b61084d565b6040516102689190614aa6565b60405180910390f35b34801561027d57600080fd5b50610298600480360381019061029391906143b5565b6108df565b6040516102a59190614a09565b60405180910390f35b3480156102ba57600080fd5b506102d560048036038101906102d09190614299565b610964565b005b3480156102e357600080fd5b506102ec610a7c565b6040516102f99190614ec8565b60405180910390f35b34801561030e57600080fd5b50610329600480360381019061032491906140eb565b610a89565b005b34801561033757600080fd5b50610352600480360381019061034d91906142d5565b610ae9565b60405161035f9190614a8b565b60405180910390f35b34801561037457600080fd5b5061038f600480360381019061038a9190614327565b610b0a565b005b34801561039d57600080fd5b506103b860048036038101906103b39190614299565b610b33565b6040516103c59190614ec8565b60405180910390f35b3480156103da57600080fd5b506103f560048036038101906103f09190614327565b610bd8565b005b34801561040357600080fd5b5061041e60048036038101906104199190614086565b610c5b565b005b34801561042c57600080fd5b50610435610e0a565b005b34801561044357600080fd5b5061045e600480360381019061045991906140eb565b610e47565b005b34801561046c57600080fd5b50610487600480360381019061048291906143b5565b610e67565b005b6104a3600480360381019061049e91906141f1565b610ec3565b005b3480156104b157600080fd5b506104cc60048036038101906104c791906143b5565b611000565b6040516104d99190614ec8565b60405180910390f35b3480156104ee57600080fd5b506104f7611097565b6040516105049190614a8b565b60405180910390f35b34801561051957600080fd5b50610522611150565b60405161052f9190614a70565b60405180910390f35b34801561054457600080fd5b5061055f600480360381019061055a91906143b5565b611167565b60405161056c9190614a09565b60405180910390f35b34801561058157600080fd5b5061059c60048036038101906105979190614086565b611219565b6040516105a99190614ec8565b60405180910390f35b3480156105be57600080fd5b506105d960048036038101906105d49190614245565b6112d1565b005b3480156105e757600080fd5b506105f0611304565b005b3480156105fe57600080fd5b50610607611517565b005b34801561061557600080fd5b50610630600480360381019061062b9190614327565b611554565b60405161063d9190614a70565b60405180910390f35b34801561065257600080fd5b5061065b6115c0565b6040516106689190614aa6565b60405180910390f35b34801561067d57600080fd5b50610686611652565b6040516106939190614a8b565b60405180910390f35b3480156106a857600080fd5b506106c360048036038101906106be91906141b5565b611659565b005b3480156106d157600080fd5b506106ec60048036038101906106e7919061413a565b61166f565b005b3480156106fa57600080fd5b50610715600480360381019061071091906143b5565b6116d1565b6040516107229190614aa6565b60405180910390f35b34801561073757600080fd5b50610752600480360381019061074d9190614245565b6116e3565b005b34801561076057600080fd5b50610769611749565b6040516107769190614a8b565b60405180910390f35b34801561078b57600080fd5b506107a660048036038101906107a19190614327565b61176d565b005b3480156107b457600080fd5b506107bd611796565b6040516107ca9190614a8b565b60405180910390f35b3480156107df57600080fd5b506107fa60048036038101906107f591906140af565b6117ba565b6040516108079190614a70565b60405180910390f35b34801561081c57600080fd5b5061082561184e565b6040516108329190614a8b565b60405180910390f35b600061084682611895565b9050919050565b60606065805461085c906151b7565b80601f0160208091040260200160405190810160405280929190818152602001828054610888906151b7565b80156108d55780601f106108aa576101008083540402835291602001916108d5565b820191906000526020600020905b8154815290600101906020018083116108b857829003601f168201915b5050505050905090565b60006108ea8261190f565b610929576040517f08c379a000000000000000000000000000000000000000000000000000000000815260040161092090614d88565b60405180910390fd5b6069600083815260200190815260200160002060009054906101000a900473ffffffffffffffffffffffffffffffffffffffff169050919050565b600061096f82611167565b90508073ffffffffffffffffffffffffffffffffffffffff168373ffffffffffffffffffffffffffffffffffffffff1614156109e0576040517f08c379a00000000000000000000000000000000000000000000000000000000081526004016109d790614de8565b60405180910390fd5b8073ffffffffffffffffffffffffffffffffffffffff166109ff61197b565b73ffffffffffffffffffffffffffffffffffffffff161480610a2e5750610a2d81610a2861197b565b6117ba565b5b610a6d576040517f08c379a0000000000000000000000000000000000000000000000000000000008152600401610a6490614c68565b60405180910390fd5b610a778383611983565b505050565b6000609980549050905090565b610a9a610a9461197b565b82611a3c565b610ad9576040517f08c379a0000000000000000000000000000000000000000000000000000000008152600401610ad090614e28565b60405180910390fd5b610ae4838383611b1a565b505050565b600061012d6000838152602001908152602001600020600101549050919050565b610b1382610ae9565b610b2481610b1f61197b565b611d81565b610b2e8383611e1e565b505050565b6000610b3e83611219565b8210610b7f576040517f08c379a0000000000000000000000000000000000000000000000000000000008152600401610b7690614b08565b60405180910390fd5b609760008473ffffffffffffffffffffffffffffffffffffffff1673ffffffffffffffffffffffffffffffffffffffff168152602001908152602001600020600083815260200190815260200160002054905092915050565b610be061197b565b73ffffffffffffffffffffffffffffffffffffffff168173ffffffffffffffffffffffffffffffffffffffff1614610c4d576040517f08c379a0000000000000000000000000000000000000000000000000000000008152600401610c4490614ea8565b60405180910390fd5b610c578282611f00565b5050565b7f000000000000000000000000000000000000000000000000000000000000000073ffffffffffffffffffffffffffffffffffffffff163073ffffffffffffffffffffffffffffffffffffffff161415610cea576040517f08c379a0000000000000000000000000000000000000000000000000000000008152600401610ce190614b88565b60405180910390fd5b7f000000000000000000000000000000000000000000000000000000000000000073ffffffffffffffffffffffffffffffffffffffff16610d29611fe3565b73ffffffffffffffffffffffffffffffffffffffff1614610d7f576040517f08c379a0000000000000000000000000000000000000000000000000000000008152600401610d7690614be8565b60405180910390fd5b610d888161203a565b610e0781600067ffffffffffffffff811115610dcd577f4e487b7100000000000000000000000000000000000000000000000000000000600052604160045260246000fd5b6040519080825280601f01601f191660200182016040528015610dff5781602001600182028036833780820191505090505b506000612070565b50565b7f65d7a28e3265b37a6474929f336521b332c1681b933f6cb9f3376673440d862a610e3c81610e3761197b565b611d81565b610e446121ed565b50565b610e628383836040518060200160405280600081525061166f565b505050565b610e78610e7261197b565b82611a3c565b610eb7576040517f08c379a0000000000000000000000000000000000000000000000000000000008152600401610eae90614e88565b60405180910390fd5b610ec08161228f565b50565b7f000000000000000000000000000000000000000000000000000000000000000073ffffffffffffffffffffffffffffffffffffffff163073ffffffffffffffffffffffffffffffffffffffff161415610f52576040517f08c379a0000000000000000000000000000000000000000000000000000000008152600401610f4990614b88565b60405180910390fd5b7f000000000000000000000000000000000000000000000000000000000000000073ffffffffffffffffffffffffffffffffffffffff16610f91611fe3565b73ffffffffffffffffffffffffffffffffffffffff1614610fe7576040517f08c379a0000000000000000000000000000000000000000000000000000000008152600401610fde90614be8565b60405180910390fd5b610ff08261203a565b610ffc82826001612070565b5050565b600061100a610a7c565b821061104b576040517f08c379a000000000000000000000000000000000000000000000000000000000815260040161104290614e48565b60405180910390fd5b60998281548110611085577f4e487b7100000000000000000000000000000000000000000000000000000000600052603260045260246000fd5b90600052602060002001549050919050565b60007f000000000000000000000000000000000000000000000000000000000000000073ffffffffffffffffffffffffffffffffffffffff163073ffffffffffffffffffffffffffffffffffffffff1614611127576040517f08c379a000000000000000000000000000000000000000000000000000000000815260040161111e90614c28565b60405180910390fd5b7f360894a13ba1a3210667c828492db98dca3e2076cc3735a920a3ca505d382bbc60001b905090565b600060fb60009054906101000a900460ff16905090565b6000806067600084815260200190815260200160002060009054906101000a900473ffffffffffffffffffffffffffffffffffffffff169050600073ffffffffffffffffffffffffffffffffffffffff168173ffffffffffffffffffffffffffffffffffffffff161415611210576040517f08c379a000000000000000000000000000000000000000000000000000000000815260040161120790614ca8565b60405180910390fd5b80915050919050565b60008073ffffffffffffffffffffffffffffffffffffffff168273ffffffffffffffffffffffffffffffffffffffff16141561128a576040517f08c379a000000000000000000000000000000000000000000000000000000000815260040161128190614c88565b60405180910390fd5b606860008373ffffffffffffffffffffffffffffffffffffffff1673ffffffffffffffffffffffffffffffffffffffff168152602001908152602001600020549050919050565b60006112de6101f561229b565b90506112eb6101f56122a9565b6112f583826122bf565b6112ff81836122dd565b505050565b600060019054906101000a900460ff1661132c5760008054906101000a900460ff1615611335565b611334612351565b5b611374576040517f08c379a000000000000000000000000000000000000000000000000000000000815260040161136b90614d08565b60405180910390fd5b60008060019054906101000a900460ff1615905080156113c4576001600060016101000a81548160ff02191690831515021790555060016000806101000a81548160ff0219169083151502179055505b6114386040518060400160405280600881526020017f496e7374324e46540000000000000000000000000000000000000000000000008152506040518060400160405280600481526020017f494e535400000000000000000000000000000000000000000000000000000000815250612362565b6114406123bf565b611448612410565b611450612461565b6114586124ba565b61146061250b565b61146861255c565b6114756000801b33611e1e565b61149f7f65d7a28e3265b37a6474929f336521b332c1681b933f6cb9f3376673440d862a33611e1e565b6114c97f9f2df0fed2c77648de5860a4cc508cd0818c85b8b8a1ab4ceeef8d981c8956a633611e1e565b6114f37f189ab7a9244df0848122154315af71fe140f3db0fe014031783b0946b8c9d2e333611e1e565b80156115145760008060016101000a81548160ff0219169083151502179055505b50565b7f65d7a28e3265b37a6474929f336521b332c1681b933f6cb9f3376673440d862a6115498161154461197b565b611d81565b6115516125ad565b50565b600061012d600084815260200190815260200160002060000160008373ffffffffffffffffffffffffffffffffffffffff1673ffffffffffffffffffffffffffffffffffffffff16815260200190815260200160002060009054906101000a900460ff16905092915050565b6060606680546115cf906151b7565b80601f01602080910402602001604051908101604052809291908181526020018280546115fb906151b7565b80156116485780601f1061161d57610100808354040283529160200191611648565b820191906000526020600020905b81548152906001019060200180831161162b57829003601f168201915b5050505050905090565b6000801b81565b61166b61166461197b565b8383612650565b5050565b61168061167a61197b565b83611a3c565b6116bf576040517f08c379a00000000000000000000000000000000000000000000000000000000081526004016116b690614e28565b60405180910390fd5b6116cb848484846127bd565b50505050565b60606116dc82612819565b9050919050565b7f9f2df0fed2c77648de5860a4cc508cd0818c85b8b8a1ab4ceeef8d981c8956a66117158161171061197b565b611d81565b60006117226101f561229b565b905061172f6101f56122a9565b61173984826122bf565b61174381846122dd565b50505050565b7f9f2df0fed2c77648de5860a4cc508cd0818c85b8b8a1ab4ceeef8d981c8956a681565b61177682610ae9565b6117878161178261197b565b611d81565b6117918383611f00565b505050565b7f65d7a28e3265b37a6474929f336521b332c1681b933f6cb9f3376673440d862a81565b6000606a60008473ffffffffffffffffffffffffffffffffffffffff1673ffffffffffffffffffffffffffffffffffffffff16815260200190815260200160002060008373ffffffffffffffffffffffffffffffffffffffff1673ffffffffffffffffffffffffffffffffffffffff16815260200190815260200160002060009054906101000a900460ff16905092915050565b7f189ab7a9244df0848122154315af71fe140f3db0fe014031783b0946b8c9d2e381565b6000808273ffffffffffffffffffffffffffffffffffffffff163b119050919050565b60007f7965db0b000000000000000000000000000000000000000000000000000000007bffffffffffffffffffffffffffffffffffffffffffffffffffffffff1916827bffffffffffffffffffffffffffffffffffffffffffffffffffffffff1916148061190857506119078261296b565b5b9050919050565b60008073ffffffffffffffffffffffffffffffffffffffff166067600084815260200190815260200160002060009054906101000a900473ffffffffffffffffffffffffffffffffffffffff1673ffffffffffffffffffffffffffffffffffffffff1614159050919050565b600033905090565b816069600083815260200190815260200160002060006101000a81548173ffffffffffffffffffffffffffffffffffffffff021916908373ffffffffffffffffffffffffffffffffffffffff160217905550808273ffffffffffffffffffffffffffffffffffffffff166119f683611167565b73ffffffffffffffffffffffffffffffffffffffff167f8c5be1e5ebec7d5bd14f71427d1e84f3dd0314c0f7b2291e5b200ac8c7c3b92560405160405180910390a45050565b6000611a478261190f565b611a86576040517f08c379a0000000000000000000000000000000000000000000000000000000008152600401611a7d90614c08565b60405180910390fd5b6000611a9183611167565b90508073ffffffffffffffffffffffffffffffffffffffff168473ffffffffffffffffffffffffffffffffffffffff161480611b0057508373ffffffffffffffffffffffffffffffffffffffff16611ae8846108df565b73ffffffffffffffffffffffffffffffffffffffff16145b80611b115750611b1081856117ba565b5b91505092915050565b8273ffffffffffffffffffffffffffffffffffffffff16611b3a82611167565b73ffffffffffffffffffffffffffffffffffffffff1614611b90576040517f08c379a0000000000000000000000000000000000000000000000000000000008152600401611b8790614b48565b60405180910390fd5b600073ffffffffffffffffffffffffffffffffffffffff168273ffffffffffffffffffffffffffffffffffffffff161415611c00576040517f08c379a0000000000000000000000000000000000000000000000000000000008152600401611bf790614ba8565b60405180910390fd5b611c0b8383836129e5565b611c16600082611983565b6001606860008573ffffffffffffffffffffffffffffffffffffffff1673ffffffffffffffffffffffffffffffffffffffff1681526020019081526020016000206000828254611c669190615099565b925050819055506001606860008473ffffffffffffffffffffffffffffffffffffffff1673ffffffffffffffffffffffffffffffffffffffff1681526020019081526020016000206000828254611cbd9190614fb8565b92505081905550816067600083815260200190815260200160002060006101000a81548173ffffffffffffffffffffffffffffffffffffffff021916908373ffffffffffffffffffffffffffffffffffffffff160217905550808273ffffffffffffffffffffffffffffffffffffffff168473ffffffffffffffffffffffffffffffffffffffff167fddf252ad1be2c89b69c2b068fc378daa952ba7f163c4a11628f55a4df523b3ef60405160405180910390a4611d7c838383612a3d565b505050565b611d8b8282611554565b611e1a57611db08173ffffffffffffffffffffffffffffffffffffffff166014612a42565b611dbe8360001c6020612a42565b604051602001611dcf9291906149cf565b6040516020818303038152906040526040517f08c379a0000000000000000000000000000000000000000000000000000000008152600401611e119190614aa6565b60405180910390fd5b5050565b611e288282611554565b611efc57600161012d600084815260200190815260200160002060000160008373ffffffffffffffffffffffffffffffffffffffff1673ffffffffffffffffffffffffffffffffffffffff16815260200190815260200160002060006101000a81548160ff021916908315150217905550611ea161197b565b73ffffffffffffffffffffffffffffffffffffffff168173ffffffffffffffffffffffffffffffffffffffff16837f2f8788117e7eff1d82e926ec794901d17c78024a50270940304540a733656f0d60405160405180910390a45b5050565b611f0a8282611554565b15611fdf57600061012d600084815260200190815260200160002060000160008373ffffffffffffffffffffffffffffffffffffffff1673ffffffffffffffffffffffffffffffffffffffff16815260200190815260200160002060006101000a81548160ff021916908315150217905550611f8461197b565b73ffffffffffffffffffffffffffffffffffffffff168173ffffffffffffffffffffffffffffffffffffffff16837ff6391f5c32d9c69d2a47ea670b442974b53935d1edc7fd64eb21e047a839171b60405160405180910390a45b5050565b60006120117f360894a13ba1a3210667c828492db98dca3e2076cc3735a920a3ca505d382bbc60001b612d3c565b60000160009054906101000a900473ffffffffffffffffffffffffffffffffffffffff16905090565b7f189ab7a9244df0848122154315af71fe140f3db0fe014031783b0946b8c9d2e361206c8161206761197b565b611d81565b5050565b61209c7f4910fdfa16fed3260ed0e7147f7cc6da11a60208b5b9406d12a635614ffd914360001b612d46565b60000160009054906101000a900460ff16156120c0576120bb83612d50565b6121e8565b8273ffffffffffffffffffffffffffffffffffffffff166352d1902d6040518163ffffffff1660e01b815260040160206040518083038186803b15801561210657600080fd5b505afa92505050801561213757506040513d601f19601f8201168201806040525081019061213491906142fe565b60015b612176576040517f08c379a000000000000000000000000000000000000000000000000000000000815260040161216d90614d48565b60405180910390fd5b7f360894a13ba1a3210667c828492db98dca3e2076cc3735a920a3ca505d382bbc60001b81146121db576040517f08c379a00000000000000000000000000000000000000000000000000000000081526004016121d290614ce8565b60405180910390fd5b506121e7838383612e09565b5b505050565b6121f5611150565b612234576040517f08c379a000000000000000000000000000000000000000000000000000000000815260040161222b90614ae8565b60405180910390fd5b600060fb60006101000a81548160ff0219169083151502179055507f5db9ee0a495bf2e6ff9c91a7834c1ba4fdd244a5e8aa4e537bd38aeae4b073aa61227861197b565b6040516122859190614a09565b60405180910390a1565b61229881612e35565b50565b600081600001549050919050565b6001816000016000828254019250508190555050565b6122d9828260405180602001604052806000815250612e88565b5050565b6122e68261190f565b612325576040517f08c379a000000000000000000000000000000000000000000000000000000000815260040161231c90614cc8565b60405180910390fd5b8060c96000848152602001908152602001600020908051906020019061234c929190613e40565b505050565b600061235c30611872565b15905090565b600060019054906101000a900460ff166123b1576040517f08c379a00000000000000000000000000000000000000000000000000000000081526004016123a890614e68565b60405180910390fd5b6123bb8282612ee3565b5050565b600060019054906101000a900460ff1661240e576040517f08c379a000000000000000000000000000000000000000000000000000000000815260040161240590614e68565b60405180910390fd5b565b600060019054906101000a900460ff1661245f576040517f08c379a000000000000000000000000000000000000000000000000000000000815260040161245690614e68565b60405180910390fd5b565b600060019054906101000a900460ff166124b0576040517f08c379a00000000000000000000000000000000000000000000000000000000081526004016124a790614e68565b60405180910390fd5b6124b8612f64565b565b600060019054906101000a900460ff16612509576040517f08c379a000000000000000000000000000000000000000000000000000000000815260040161250090614e68565b60405180910390fd5b565b600060019054906101000a900460ff1661255a576040517f08c379a000000000000000000000000000000000000000000000000000000000815260040161255190614e68565b60405180910390fd5b565b600060019054906101000a900460ff166125ab576040517f08c379a00000000000000000000000000000000000000000000000000000000081526004016125a290614e68565b60405180910390fd5b565b6125b5611150565b156125f5576040517f08c379a00000000000000000000000000000000000000000000000000000000081526004016125ec90614c48565b60405180910390fd5b600160fb60006101000a81548160ff0219169083151502179055507f62e78cea01bee320cd4e420270b5ea74000d11b0c9f74754ebdbfc544b05a25861263961197b565b6040516126469190614a09565b60405180910390a1565b8173ffffffffffffffffffffffffffffffffffffffff168373ffffffffffffffffffffffffffffffffffffffff1614156126bf576040517f08c379a00000000000000000000000000000000000000000000000000000000081526004016126b690614bc8565b60405180910390fd5b80606a60008573ffffffffffffffffffffffffffffffffffffffff1673ffffffffffffffffffffffffffffffffffffffff16815260200190815260200160002060008473ffffffffffffffffffffffffffffffffffffffff1673ffffffffffffffffffffffffffffffffffffffff16815260200190815260200160002060006101000a81548160ff0219169083151502179055508173ffffffffffffffffffffffffffffffffffffffff168373ffffffffffffffffffffffffffffffffffffffff167f17307eab39ab6107e8899845ad3d59bd9653f200f220920489ca2b5937696c31836040516127b09190614a70565b60405180910390a3505050565b6127c8848484611b1a565b6127d484848484612fd0565b612813576040517f08c379a000000000000000000000000000000000000000000000000000000000815260040161280a90614b28565b60405180910390fd5b50505050565b60606128248261190f565b612863576040517f08c379a000000000000000000000000000000000000000000000000000000000815260040161285a90614d68565b60405180910390fd5b600060c960008481526020019081526020016000208054612883906151b7565b80601f01602080910402602001604051908101604052809291908181526020018280546128af906151b7565b80156128fc5780601f106128d1576101008083540402835291602001916128fc565b820191906000526020600020905b8154815290600101906020018083116128df57829003601f168201915b50505050509050600061290d613167565b9050600081511415612923578192505050612966565b6000825111156129585780826040516020016129409291906149ab565b60405160208183030381529060405292505050612966565b6129618461317e565b925050505b919050565b60007f780e9d63000000000000000000000000000000000000000000000000000000007bffffffffffffffffffffffffffffffffffffffffffffffffffffffff1916827bffffffffffffffffffffffffffffffffffffffffffffffffffffffff191614806129de57506129dd82613225565b5b9050919050565b6129ed611150565b15612a2d576040517f08c379a0000000000000000000000000000000000000000000000000000000008152600401612a2490614c48565b60405180910390fd5b612a38838383613307565b505050565b505050565b606060006002836002612a55919061503f565b612a5f9190614fb8565b67ffffffffffffffff811115612a9e577f4e487b7100000000000000000000000000000000000000000000000000000000600052604160045260246000fd5b6040519080825280601f01601f191660200182016040528015612ad05781602001600182028036833780820191505090505b5090507f300000000000000000000000000000000000000000000000000000000000000081600081518110612b2e577f4e487b7100000000000000000000000000000000000000000000000000000000600052603260045260246000fd5b60200101907effffffffffffffffffffffffffffffffffffffffffffffffffffffffffffff1916908160001a9053507f780000000000000000000000000000000000000000000000000000000000000081600181518110612bb8577f4e487b7100000000000000000000000000000000000000000000000000000000600052603260045260246000fd5b60200101907effffffffffffffffffffffffffffffffffffffffffffffffffffffffffffff1916908160001a90535060006001846002612bf8919061503f565b612c029190614fb8565b90505b6001811115612cee577f3031323334353637383961626364656600000000000000000000000000000000600f861660108110612c6a577f4e487b7100000000000000000000000000000000000000000000000000000000600052603260045260246000fd5b1a60f81b828281518110612ca7577f4e487b7100000000000000000000000000000000000000000000000000000000600052603260045260246000fd5b60200101907effffffffffffffffffffffffffffffffffffffffffffffffffffffffffffff1916908160001a905350600485901c945080612ce79061518d565b9050612c05565b5060008414612d32576040517f08c379a0000000000000000000000000000000000000000000000000000000008152600401612d2990614ac8565b60405180910390fd5b8091505092915050565b6000819050919050565b6000819050919050565b612d5981611872565b612d98576040517f08c379a0000000000000000000000000000000000000000000000000000000008152600401612d8f90614da8565b60405180910390fd5b80612dc57f360894a13ba1a3210667c828492db98dca3e2076cc3735a920a3ca505d382bbc60001b612d3c565b60000160006101000a81548173ffffffffffffffffffffffffffffffffffffffff021916908373ffffffffffffffffffffffffffffffffffffffff16021790555050565b612e128361341b565b600082511180612e1f5750805b15612e3057612e2e838361346a565b505b505050565b612e3e8161354e565b600060c960008381526020019081526020016000208054612e5e906151b7565b905014612e855760c960008281526020019081526020016000206000612e849190613ec6565b5b50565b612e92838361366b565b612e9f6000848484612fd0565b612ede576040517f08c379a0000000000000000000000000000000000000000000000000000000008152600401612ed590614b28565b60405180910390fd5b505050565b600060019054906101000a900460ff16612f32576040517f08c379a0000000000000000000000000000000000000000000000000000000008152600401612f2990614e68565b60405180910390fd5b8160659080519060200190612f48929190613e40565b508060669080519060200190612f5f929190613e40565b505050565b600060019054906101000a900460ff16612fb3576040517f08c379a0000000000000000000000000000000000000000000000000000000008152600401612faa90614e68565b60405180910390fd5b600060fb60006101000a81548160ff021916908315150217905550565b6000612ff18473ffffffffffffffffffffffffffffffffffffffff16611872565b1561315a578373ffffffffffffffffffffffffffffffffffffffff1663150b7a0261301a61197b565b8786866040518563ffffffff1660e01b815260040161303c9493929190614a24565b602060405180830381600087803b15801561305657600080fd5b505af192505050801561308757506040513d601f19601f82011682018060405250810190613084919061438c565b60015b61310a573d80600081146130b7576040519150601f19603f3d011682016040523d82523d6000602084013e6130bc565b606091505b50600081511415613102576040517f08c379a00000000000000000000000000000000000000000000000000000000081526004016130f990614b28565b60405180910390fd5b805181602001fd5b63150b7a0260e01b7bffffffffffffffffffffffffffffffffffffffffffffffffffffffff1916817bffffffffffffffffffffffffffffffffffffffffffffffffffffffff19161491505061315f565b600190505b949350505050565b606060405180602001604052806000815250905090565b60606131898261190f565b6131c8576040517f08c379a00000000000000000000000000000000000000000000000000000000081526004016131bf90614dc8565b60405180910390fd5b60006131d2613167565b905060008151116131f2576040518060200160405280600081525061321d565b806131fc84613845565b60405160200161320d9291906149ab565b6040516020818303038152906040525b915050919050565b60007f80ac58cd000000000000000000000000000000000000000000000000000000007bffffffffffffffffffffffffffffffffffffffffffffffffffffffff1916827bffffffffffffffffffffffffffffffffffffffffffffffffffffffff191614806132f057507f5b5e139f000000000000000000000000000000000000000000000000000000007bffffffffffffffffffffffffffffffffffffffffffffffffffffffff1916827bffffffffffffffffffffffffffffffffffffffffffffffffffffffff1916145b8061330057506132ff826139f2565b5b9050919050565b613312838383613a5c565b600073ffffffffffffffffffffffffffffffffffffffff168373ffffffffffffffffffffffffffffffffffffffff1614156133555761335081613a61565b613394565b8173ffffffffffffffffffffffffffffffffffffffff168373ffffffffffffffffffffffffffffffffffffffff1614613393576133928382613aaa565b5b5b600073ffffffffffffffffffffffffffffffffffffffff168273ffffffffffffffffffffffffffffffffffffffff1614156133d7576133d281613c17565b613416565b8273ffffffffffffffffffffffffffffffffffffffff168273ffffffffffffffffffffffffffffffffffffffff1614613415576134148282613d5a565b5b5b505050565b61342481612d50565b8073ffffffffffffffffffffffffffffffffffffffff167fbc7cd75a20ee27fd9adebab32041f755214dbc6bffa90cc0225b39da2e5c2d3b60405160405180910390a250565b606061347583611872565b6134b4576040517f08c379a00000000000000000000000000000000000000000000000000000000081526004016134ab90614e08565b60405180910390fd5b6000808473ffffffffffffffffffffffffffffffffffffffff16846040516134dc9190614994565b600060405180830381855af49150503d8060008114613517576040519150601f19603f3d011682016040523d82523d6000602084013e61351c565b606091505b50915091506135448282604051806060016040528060278152602001615d2360279139613dd9565b9250505092915050565b600061355982611167565b9050613567816000846129e5565b613572600083611983565b6001606860008373ffffffffffffffffffffffffffffffffffffffff1673ffffffffffffffffffffffffffffffffffffffff16815260200190815260200160002060008282546135c29190615099565b925050819055506067600083815260200190815260200160002060006101000a81549073ffffffffffffffffffffffffffffffffffffffff021916905581600073ffffffffffffffffffffffffffffffffffffffff168273ffffffffffffffffffffffffffffffffffffffff167fddf252ad1be2c89b69c2b068fc378daa952ba7f163c4a11628f55a4df523b3ef60405160405180910390a461366781600084612a3d565b5050565b600073ffffffffffffffffffffffffffffffffffffffff168273ffffffffffffffffffffffffffffffffffffffff1614156136db576040517f08c379a00000000000000000000000000000000000000000000000000000000081526004016136d290614d28565b60405180910390fd5b6136e48161190f565b15613724576040517f08c379a000000000000000000000000000000000000000000000000000000000815260040161371b90614b68565b60405180910390fd5b613730600083836129e5565b6001606860008473ffffffffffffffffffffffffffffffffffffffff1673ffffffffffffffffffffffffffffffffffffffff16815260200190815260200160002060008282546137809190614fb8565b92505081905550816067600083815260200190815260200160002060006101000a81548173ffffffffffffffffffffffffffffffffffffffff021916908373ffffffffffffffffffffffffffffffffffffffff160217905550808273ffffffffffffffffffffffffffffffffffffffff16600073ffffffffffffffffffffffffffffffffffffffff167fddf252ad1be2c89b69c2b068fc378daa952ba7f163c4a11628f55a4df523b3ef60405160405180910390a461384160008383612a3d565b5050565b6060600082141561388d576040518060400160405280600181526020017f300000000000000000000000000000000000000000000000000000000000000081525090506139ed565b600082905060005b600082146138bf5780806138a89061521a565b915050600a826138b8919061500e565b9150613895565b60008167ffffffffffffffff811115613901577f4e487b7100000000000000000000000000000000000000000000000000000000600052604160045260246000fd5b6040519080825280601f01601f1916602001820160405280156139335781602001600182028036833780820191505090505b5090505b600085146139e65760018261394c9190615099565b9150600a8561395b9190615263565b60306139679190614fb8565b60f81b8183815181106139a3577f4e487b7100000000000000000000000000000000000000000000000000000000600052603260045260246000fd5b60200101907effffffffffffffffffffffffffffffffffffffffffffffffffffffffffffff1916908160001a905350600a856139df919061500e565b9450613937565b8093505050505b919050565b60007f01ffc9a7000000000000000000000000000000000000000000000000000000007bffffffffffffffffffffffffffffffffffffffffffffffffffffffff1916827bffffffffffffffffffffffffffffffffffffffffffffffffffffffff1916149050919050565b505050565b609980549050609a600083815260200190815260200160002081905550609981908060018154018082558091505060019003906000526020600020016000909190919091505550565b60006001613ab784611219565b613ac19190615099565b9050600060986000848152602001908152602001600020549050818114613ba6576000609760008673ffffffffffffffffffffffffffffffffffffffff1673ffffffffffffffffffffffffffffffffffffffff168152602001908152602001600020600084815260200190815260200160002054905080609760008773ffffffffffffffffffffffffffffffffffffffff1673ffffffffffffffffffffffffffffffffffffffff168152602001908152602001600020600084815260200190815260200160002081905550816098600083815260200190815260200160002081905550505b6098600084815260200190815260200160002060009055609760008573ffffffffffffffffffffffffffffffffffffffff1673ffffffffffffffffffffffffffffffffffffffff16815260200190815260200160002060008381526020019081526020016000206000905550505050565b60006001609980549050613c2b9190615099565b90506000609a6000848152602001908152602001600020549050600060998381548110613c81577f4e487b7100000000000000000000000000000000000000000000000000000000600052603260045260246000fd5b906000526020600020015490508060998381548110613cc9577f4e487b7100000000000000000000000000000000000000000000000000000000600052603260045260246000fd5b906000526020600020018190555081609a600083815260200190815260200160002081905550609a6000858152602001908152602001600020600090556099805480613d3e577f4e487b7100000000000000000000000000000000000000000000000000000000600052603160045260246000fd5b6001900381819060005260206000200160009055905550505050565b6000613d6583611219565b905081609760008573ffffffffffffffffffffffffffffffffffffffff1673ffffffffffffffffffffffffffffffffffffffff168152602001908152602001600020600083815260200190815260200160002081905550806098600084815260200190815260200160002081905550505050565b60608315613de957829050613e39565b600083511115613dfc5782518084602001fd5b816040517f08c379a0000000000000000000000000000000000000000000000000000000008152600401613e309190614aa6565b60405180910390fd5b9392505050565b828054613e4c906151b7565b90600052602060002090601f016020900481019282613e6e5760008555613eb5565b82601f10613e8757805160ff1916838001178555613eb5565b82800160010185558215613eb5579182015b82811115613eb4578251825591602001919060010190613e99565b5b509050613ec29190613f06565b5090565b508054613ed2906151b7565b6000825580601f10613ee45750613f03565b601f016020900490600052602060002090810190613f029190613f06565b5b50565b5b80821115613f1f576000816000905550600101613f07565b5090565b6000613f36613f3184614f08565b614ee3565b905082815260208101848484011115613f4e57600080fd5b613f5984828561514b565b509392505050565b6000613f74613f6f84614f39565b614ee3565b905082815260208101848484011115613f8c57600080fd5b613f9784828561514b565b509392505050565b600081359050613fae81615caf565b92915050565b600081359050613fc381615cc6565b92915050565b600081359050613fd881615cdd565b92915050565b600081519050613fed81615cdd565b92915050565b60008135905061400281615cf4565b92915050565b60008151905061401781615cf4565b92915050565b600082601f83011261402e57600080fd5b813561403e848260208601613f23565b91505092915050565b600082601f83011261405857600080fd5b8135614068848260208601613f61565b91505092915050565b60008135905061408081615d0b565b92915050565b60006020828403121561409857600080fd5b60006140a684828501613f9f565b91505092915050565b600080604083850312156140c257600080fd5b60006140d085828601613f9f565b92505060206140e185828601613f9f565b9150509250929050565b60008060006060848603121561410057600080fd5b600061410e86828701613f9f565b935050602061411f86828701613f9f565b925050604061413086828701614071565b9150509250925092565b6000806000806080858703121561415057600080fd5b600061415e87828801613f9f565b945050602061416f87828801613f9f565b935050604061418087828801614071565b925050606085013567ffffffffffffffff81111561419d57600080fd5b6141a98782880161401d565b91505092959194509250565b600080604083850312156141c857600080fd5b60006141d685828601613f9f565b92505060206141e785828601613fb4565b9150509250929050565b6000806040838503121561420457600080fd5b600061421285828601613f9f565b925050602083013567ffffffffffffffff81111561422f57600080fd5b61423b8582860161401d565b9150509250929050565b6000806040838503121561425857600080fd5b600061426685828601613f9f565b925050602083013567ffffffffffffffff81111561428357600080fd5b61428f85828601614047565b9150509250929050565b600080604083850312156142ac57600080fd5b60006142ba85828601613f9f565b92505060206142cb85828601614071565b9150509250929050565b6000602082840312156142e757600080fd5b60006142f584828501613fc9565b91505092915050565b60006020828403121561431057600080fd5b600061431e84828501613fde565b91505092915050565b6000806040838503121561433a57600080fd5b600061434885828601613fc9565b925050602061435985828601613f9f565b9150509250929050565b60006020828403121561437557600080fd5b600061438384828501613ff3565b91505092915050565b60006020828403121561439e57600080fd5b60006143ac84828501614008565b91505092915050565b6000602082840312156143c757600080fd5b60006143d584828501614071565b91505092915050565b6143e7816150cd565b82525050565b6143f6816150df565b82525050565b614405816150eb565b82525050565b600061441682614f6a565b6144208185614f80565b935061443081856020860161515a565b61443981615350565b840191505092915050565b600061444f82614f6a565b6144598185614f91565b935061446981856020860161515a565b80840191505092915050565b600061448082614f75565b61448a8185614f9c565b935061449a81856020860161515a565b6144a381615350565b840191505092915050565b60006144b982614f75565b6144c38185614fad565b93506144d381856020860161515a565b80840191505092915050565b60006144ec602083614f9c565b91506144f782615361565b602082019050919050565b600061450f601483614f9c565b915061451a8261538a565b602082019050919050565b6000614532602b83614f9c565b915061453d826153b3565b604082019050919050565b6000614555603283614f9c565b915061456082615402565b604082019050919050565b6000614578602583614f9c565b915061458382615451565b604082019050919050565b600061459b601c83614f9c565b91506145a6826154a0565b602082019050919050565b60006145be602c83614f9c565b91506145c9826154c9565b604082019050919050565b60006145e1602483614f9c565b91506145ec82615518565b604082019050919050565b6000614604601983614f9c565b915061460f82615567565b602082019050919050565b6000614627602c83614f9c565b915061463282615590565b604082019050919050565b600061464a602c83614f9c565b9150614655826155df565b604082019050919050565b600061466d603883614f9c565b91506146788261562e565b604082019050919050565b6000614690601083614f9c565b915061469b8261567d565b602082019050919050565b60006146b3603883614f9c565b91506146be826156a6565b604082019050919050565b60006146d6602a83614f9c565b91506146e1826156f5565b604082019050919050565b60006146f9602983614f9c565b915061470482615744565b604082019050919050565b600061471c602e83614f9c565b915061472782615793565b604082019050919050565b600061473f602983614f9c565b915061474a826157e2565b604082019050919050565b6000614762602e83614f9c565b915061476d82615831565b604082019050919050565b6000614785602083614f9c565b915061479082615880565b602082019050919050565b60006147a8602e83614f9c565b91506147b3826158a9565b604082019050919050565b60006147cb603183614f9c565b91506147d6826158f8565b604082019050919050565b60006147ee602c83614f9c565b91506147f982615947565b604082019050919050565b6000614811602d83614f9c565b915061481c82615996565b604082019050919050565b6000614834602f83614f9c565b915061483f826159e5565b604082019050919050565b6000614857602183614f9c565b915061486282615a34565b604082019050919050565b600061487a602683614f9c565b915061488582615a83565b604082019050919050565b600061489d603183614f9c565b91506148a882615ad2565b604082019050919050565b60006148c0602c83614f9c565b91506148cb82615b21565b604082019050919050565b60006148e3602b83614f9c565b91506148ee82615b70565b604082019050919050565b6000614906601783614fad565b915061491182615bbf565b601782019050919050565b6000614929603083614f9c565b915061493482615be8565b604082019050919050565b600061494c601183614fad565b915061495782615c37565b601182019050919050565b600061496f602f83614f9c565b915061497a82615c60565b604082019050919050565b61498e81615141565b82525050565b60006149a08284614444565b915081905092915050565b60006149b782856144ae565b91506149c382846144ae565b91508190509392505050565b60006149da826148f9565b91506149e682856144ae565b91506149f18261493f565b91506149fd82846144ae565b91508190509392505050565b6000602082019050614a1e60008301846143de565b92915050565b6000608082019050614a3960008301876143de565b614a4660208301866143de565b614a536040830185614985565b8181036060830152614a65818461440b565b905095945050505050565b6000602082019050614a8560008301846143ed565b92915050565b6000602082019050614aa060008301846143fc565b92915050565b60006020820190508181036000830152614ac08184614475565b905092915050565b60006020820190508181036000830152614ae1816144df565b9050919050565b60006020820190508181036000830152614b0181614502565b9050919050565b60006020820190508181036000830152614b2181614525565b9050919050565b60006020820190508181036000830152614b4181614548565b9050919050565b60006020820190508181036000830152614b618161456b565b9050919050565b60006020820190508181036000830152614b818161458e565b9050919050565b60006020820190508181036000830152614ba1816145b1565b9050919050565b60006020820190508181036000830152614bc1816145d4565b9050919050565b60006020820190508181036000830152614be1816145f7565b9050919050565b60006020820190508181036000830152614c018161461a565b9050919050565b60006020820190508181036000830152614c218161463d565b9050919050565b60006020820190508181036000830152614c4181614660565b9050919050565b60006020820190508181036000830152614c6181614683565b9050919050565b60006020820190508181036000830152614c81816146a6565b9050919050565b60006020820190508181036000830152614ca1816146c9565b9050919050565b60006020820190508181036000830152614cc1816146ec565b9050919050565b60006020820190508181036000830152614ce18161470f565b9050919050565b60006020820190508181036000830152614d0181614732565b9050919050565b60006020820190508181036000830152614d2181614755565b9050919050565b60006020820190508181036000830152614d4181614778565b9050919050565b60006020820190508181036000830152614d618161479b565b9050919050565b60006020820190508181036000830152614d81816147be565b9050919050565b60006020820190508181036000830152614da1816147e1565b9050919050565b60006020820190508181036000830152614dc181614804565b9050919050565b60006020820190508181036000830152614de181614827565b9050919050565b60006020820190508181036000830152614e018161484a565b9050919050565b60006020820190508181036000830152614e218161486d565b9050919050565b60006020820190508181036000830152614e4181614890565b9050919050565b60006020820190508181036000830152614e61816148b3565b9050919050565b60006020820190508181036000830152614e81816148d6565b9050919050565b60006020820190508181036000830152614ea18161491c565b9050919050565b60006020820190508181036000830152614ec181614962565b9050919050565b6000602082019050614edd6000830184614985565b92915050565b6000614eed614efe565b9050614ef982826151e9565b919050565b6000604051905090565b600067ffffffffffffffff821115614f2357614f22615321565b5b614f2c82615350565b9050602081019050919050565b600067ffffffffffffffff821115614f5457614f53615321565b5b614f5d82615350565b9050602081019050919050565b600081519050919050565b600081519050919050565b600082825260208201905092915050565b600081905092915050565b600082825260208201905092915050565b600081905092915050565b6000614fc382615141565b9150614fce83615141565b9250827fffffffffffffffffffffffffffffffffffffffffffffffffffffffffffffffff0382111561500357615002615294565b5b828201905092915050565b600061501982615141565b915061502483615141565b925082615034576150336152c3565b5b828204905092915050565b600061504a82615141565b915061505583615141565b9250817fffffffffffffffffffffffffffffffffffffffffffffffffffffffffffffffff048311821515161561508e5761508d615294565b5b828202905092915050565b60006150a482615141565b91506150af83615141565b9250828210156150c2576150c1615294565b5b828203905092915050565b60006150d882615121565b9050919050565b60008115159050919050565b6000819050919050565b60007fffffffff0000000000000000000000000000000000000000000000000000000082169050919050565b600073ffffffffffffffffffffffffffffffffffffffff82169050919050565b6000819050919050565b82818337600083830152505050565b60005b8381101561517857808201518184015260208101905061515d565b83811115615187576000848401525b50505050565b600061519882615141565b915060008214156151ac576151ab615294565b5b600182039050919050565b600060028204905060018216806151cf57607f821691505b602082108114156151e3576151e26152f2565b5b50919050565b6151f282615350565b810181811067ffffffffffffffff8211171561521157615210615321565b5b80604052505050565b600061522582615141565b91507fffffffffffffffffffffffffffffffffffffffffffffffffffffffffffffffff82141561525857615257615294565b5b600182019050919050565b600061526e82615141565b915061527983615141565b925082615289576152886152c3565b5b828206905092915050565b7f4e487b7100000000000000000000000000000000000000000000000000000000600052601160045260246000fd5b7f4e487b7100000000000000000000000000000000000000000000000000000000600052601260045260246000fd5b7f4e487b7100000000000000000000000000000000000000000000000000000000600052602260045260246000fd5b7f4e487b7100000000000000000000000000000000000000000000000000000000600052604160045260246000fd5b6000601f19601f8301169050919050565b7f537472696e67733a20686578206c656e67746820696e73756666696369656e74600082015250565b7f5061757361626c653a206e6f7420706175736564000000000000000000000000600082015250565b7f455243373231456e756d657261626c653a206f776e657220696e646578206f7560008201527f74206f6620626f756e6473000000000000000000000000000000000000000000602082015250565b7f4552433732313a207472616e7366657220746f206e6f6e20455243373231526560008201527f63656976657220696d706c656d656e7465720000000000000000000000000000602082015250565b7f4552433732313a207472616e736665722066726f6d20696e636f72726563742060008201527f6f776e6572000000000000000000000000000000000000000000000000000000602082015250565b7f4552433732313a20746f6b656e20616c7265616479206d696e74656400000000600082015250565b7f46756e6374696f6e206d7573742062652063616c6c6564207468726f7567682060008201527f64656c656761746563616c6c0000000000000000000000000000000000000000602082015250565b7f4552433732313a207472616e7366657220746f20746865207a65726f2061646460008201527f7265737300000000000000000000000000000000000000000000000000000000602082015250565b7f4552433732313a20617070726f766520746f2063616c6c657200000000000000600082015250565b7f46756e6374696f6e206d7573742062652063616c6c6564207468726f7567682060008201527f6163746976652070726f78790000000000000000000000000000000000000000602082015250565b7f4552433732313a206f70657261746f7220717565727920666f72206e6f6e657860008201527f697374656e7420746f6b656e0000000000000000000000000000000000000000602082015250565b7f555550535570677261646561626c653a206d757374206e6f742062652063616c60008201527f6c6564207468726f7567682064656c656761746563616c6c0000000000000000602082015250565b7f5061757361626c653a2070617573656400000000000000000000000000000000600082015250565b7f4552433732313a20617070726f76652063616c6c6572206973206e6f74206f7760008201527f6e6572206e6f7220617070726f76656420666f7220616c6c0000000000000000602082015250565b7f4552433732313a2062616c616e636520717565727920666f7220746865207a6560008201527f726f206164647265737300000000000000000000000000000000000000000000602082015250565b7f4552433732313a206f776e657220717565727920666f72206e6f6e657869737460008201527f656e7420746f6b656e0000000000000000000000000000000000000000000000602082015250565b7f45524337323155524953746f726167653a2055524920736574206f66206e6f6e60008201527f6578697374656e7420746f6b656e000000000000000000000000000000000000602082015250565b7f45524331393637557067726164653a20756e737570706f727465642070726f7860008201527f6961626c65555549440000000000000000000000000000000000000000000000602082015250565b7f496e697469616c697a61626c653a20636f6e747261637420697320616c72656160008201527f647920696e697469616c697a6564000000000000000000000000000000000000602082015250565b7f4552433732313a206d696e7420746f20746865207a65726f2061646472657373600082015250565b7f45524331393637557067726164653a206e657720696d706c656d656e7461746960008201527f6f6e206973206e6f742055555053000000000000000000000000000000000000602082015250565b7f45524337323155524953746f726167653a2055524920717565727920666f722060008201527f6e6f6e6578697374656e7420746f6b656e000000000000000000000000000000602082015250565b7f4552433732313a20617070726f76656420717565727920666f72206e6f6e657860008201527f697374656e7420746f6b656e0000000000000000000000000000000000000000602082015250565b7f455243313936373a206e657720696d706c656d656e746174696f6e206973206e60008201527f6f74206120636f6e747261637400000000000000000000000000000000000000602082015250565b7f4552433732314d657461646174613a2055524920717565727920666f72206e6f60008201527f6e6578697374656e7420746f6b656e0000000000000000000000000000000000602082015250565b7f4552433732313a20617070726f76616c20746f2063757272656e74206f776e6560008201527f7200000000000000000000000000000000000000000000000000000000000000602082015250565b7f416464726573733a2064656c65676174652063616c6c20746f206e6f6e2d636f60008201527f6e74726163740000000000000000000000000000000000000000000000000000602082015250565b7f4552433732313a207472616e736665722063616c6c6572206973206e6f74206f60008201527f776e6572206e6f7220617070726f766564000000000000000000000000000000602082015250565b7f455243373231456e756d657261626c653a20676c6f62616c20696e646578206f60008201527f7574206f6620626f756e64730000000000000000000000000000000000000000602082015250565b7f496e697469616c697a61626c653a20636f6e7472616374206973206e6f74206960008201527f6e697469616c697a696e67000000000000000000000000000000000000000000602082015250565b7f416363657373436f6e74726f6c3a206163636f756e7420000000000000000000600082015250565b7f4552433732314275726e61626c653a2063616c6c6572206973206e6f74206f7760008201527f6e6572206e6f7220617070726f76656400000000000000000000000000000000602082015250565b7f206973206d697373696e6720726f6c6520000000000000000000000000000000600082015250565b7f416363657373436f6e74726f6c3a2063616e206f6e6c792072656e6f756e636560008201527f20726f6c657320666f722073656c660000000000000000000000000000000000602082015250565b615cb8816150cd565b8114615cc357600080fd5b50565b615ccf816150df565b8114615cda57600080fd5b50565b615ce6816150eb565b8114615cf157600080fd5b50565b615cfd816150f5565b8114615d0857600080fd5b50565b615d1481615141565b8114615d1f57600080fd5b5056fe416464726573733a206c6f772d6c6576656c2064656c65676174652063616c6c206661696c6564a2646970667358221220a8471d86a11a1f3c9d13f693afc899c6a0468d679626a9a41d73bcb392b42fea64736f6c63430008020033",
  "linkReferences": {},
  "deployedLinkReferences": {}
}